{
  "_format": "hh-sol-artifact-1",
  "contractName": "RatingAndReview",
  "sourceName": "contracts/abstract/RatingAndReview.sol",
  "abi": [
    {
      "inputs": [
        {
          "internalType": "address",
          "name": "_tutorParmarket",
          "type": "address"
        },
        {
          "internalType": "address",
          "name": "_sessionBooking",
          "type": "address"
        }
      ],
      "stateMutability": "nonpayable",
      "type": "constructor"
    },
    {
      "inputs": [],
      "name": "NotStudent",
      "type": "error"
    },
    {
      "inputs": [
        {
          "internalType": "uint8",
          "name": "rating",
          "type": "uint8"
        }
      ],
      "name": "SessionReview__InvalidRating",
      "type": "error"
    },
    {
      "anonymous": false,
      "inputs": [
        {
          "indexed": true,
          "internalType": "uint256",
          "name": "courseId",
          "type": "uint256"
        },
        {
          "indexed": true,
          "internalType": "address",
          "name": "student",
          "type": "address"
        },
        {
          "indexed": false,
          "internalType": "uint256",
          "name": "rating",
          "type": "uint256"
        },
        {
          "indexed": false,
          "internalType": "string",
          "name": "reviewText",
          "type": "string"
        }
      ],
      "name": "CourseReviewSubmitted",
      "type": "event"
    },
    {
      "anonymous": false,
      "inputs": [
        {
          "indexed": true,
          "internalType": "uint256",
          "name": "sessionId",
          "type": "uint256"
        },
        {
          "indexed": true,
          "internalType": "address",
          "name": "student",
          "type": "address"
        },
        {
          "indexed": false,
          "internalType": "uint256",
          "name": "rating",
          "type": "uint256"
        },
        {
          "indexed": false,
          "internalType": "string",
          "name": "reviewText",
          "type": "string"
        }
      ],
      "name": "SessionReviewSubmitted",
      "type": "event"
    },
    {
      "inputs": [
        {
          "internalType": "uint256",
          "name": "courseId",
          "type": "uint256"
        }
      ],
      "name": "courseRatings",
      "outputs": [
        {
          "internalType": "uint256",
          "name": "totalRating",
          "type": "uint256"
        },
        {
          "internalType": "uint64",
          "name": "totalReviewer",
          "type": "uint64"
        },
        {
          "internalType": "uint8",
          "name": "rating",
          "type": "uint8"
        }
      ],
      "stateMutability": "view",
      "type": "function"
    },
    {
      "inputs": [
        {
          "internalType": "uint256",
          "name": "courseId",
          "type": "uint256"
        }
      ],
      "name": "courseReviews",
      "outputs": [
        {
          "internalType": "uint256",
          "name": "courseId",
          "type": "uint256"
        },
        {
          "internalType": "address",
          "name": "student",
          "type": "address"
        },
        {
          "internalType": "uint256",
          "name": "rating",
          "type": "uint256"
        },
        {
          "internalType": "string",
          "name": "reviewText",
          "type": "string"
        },
        {
          "internalType": "uint256",
          "name": "timestamp",
          "type": "uint256"
        }
      ],
      "stateMutability": "view",
      "type": "function"
    },
    {
      "inputs": [
        {
          "internalType": "uint256",
          "name": "courseId",
          "type": "uint256"
        }
      ],
      "name": "getCourseRating",
      "outputs": [
        {
          "internalType": "uint8",
          "name": "",
          "type": "uint8"
        }
      ],
      "stateMutability": "view",
      "type": "function"
    },
    {
      "inputs": [
        {
          "internalType": "address",
          "name": "instructor",
          "type": "address"
        }
      ],
      "name": "getinstructorRating",
      "outputs": [
        {
          "internalType": "uint8",
          "name": "",
          "type": "uint8"
        }
      ],
      "stateMutability": "view",
      "type": "function"
    },
    {
      "inputs": [
        {
          "internalType": "address",
          "name": "instructor",
          "type": "address"
        }
      ],
      "name": "instructorRatings",
      "outputs": [
        {
          "internalType": "uint256",
          "name": "totalRating",
          "type": "uint256"
        },
        {
          "internalType": "uint64",
          "name": "totalReviewer",
          "type": "uint64"
        },
        {
          "internalType": "uint8",
          "name": "rating",
          "type": "uint8"
        }
      ],
      "stateMutability": "view",
      "type": "function"
    },
    {
      "inputs": [
        {
          "internalType": "uint256",
          "name": "sessionId",
          "type": "uint256"
        }
      ],
      "name": "sessionReviews",
      "outputs": [
        {
          "internalType": "uint256",
          "name": "sessionId",
          "type": "uint256"
        },
        {
          "internalType": "address",
          "name": "student",
          "type": "address"
        },
        {
          "internalType": "uint256",
          "name": "rating",
          "type": "uint256"
        },
        {
          "internalType": "string",
          "name": "reviewText",
          "type": "string"
        },
        {
          "internalType": "uint256",
          "name": "timestamp",
          "type": "uint256"
        }
      ],
      "stateMutability": "view",
      "type": "function"
    },
    {
      "inputs": [
        {
          "internalType": "uint256",
          "name": "courseId",
          "type": "uint256"
        },
        {
          "internalType": "uint8",
          "name": "rating",
          "type": "uint8"
        },
        {
          "internalType": "string",
          "name": "reviewText",
          "type": "string"
        }
      ],
      "name": "submitCourseReview",
      "outputs": [],
      "stateMutability": "nonpayable",
      "type": "function"
    },
    {
      "inputs": [
        {
          "internalType": "uint256",
          "name": "sessionId",
          "type": "uint256"
        },
        {
          "internalType": "address",
          "name": "instructor",
          "type": "address"
        },
        {
          "internalType": "uint8",
          "name": "rating",
          "type": "uint8"
        },
        {
          "internalType": "string",
          "name": "reviewText",
          "type": "string"
        }
      ],
      "name": "submitSessionReview",
      "outputs": [],
      "stateMutability": "nonpayable",
      "type": "function"
    }
  ],
  "bytecode": "0x608060405234801561001057600080fd5b506040516117c53803806117c58339818101604052810190610032919061011e565b81600460006101000a81548173ffffffffffffffffffffffffffffffffffffffff021916908373ffffffffffffffffffffffffffffffffffffffff16021790555080600560006101000a81548173ffffffffffffffffffffffffffffffffffffffff021916908373ffffffffffffffffffffffffffffffffffffffff160217905550505061015e565b600080fd5b600073ffffffffffffffffffffffffffffffffffffffff82169050919050565b60006100eb826100c0565b9050919050565b6100fb816100e0565b811461010657600080fd5b50565b600081519050610118816100f2565b92915050565b60008060408385031215610135576101346100bb565b5b600061014385828601610109565b925050602061015485828601610109565b9150509250929050565b6116588061016d6000396000f3fe608060405234801561001057600080fd5b50600436106100885760003560e01c806329a5532e1161005b57806329a5532e1461013d57806333dcc5b91461016f578063680949e6146101a3578063d905100d146101d557610088565b8063070a67b21461008d5780630e3a2b31146100c15780631812a3bc146100f157806326c7f6501461010d575b600080fd5b6100a760048036038101906100a29190610ce1565b6101f1565b6040516100b8959493929190610dee565b60405180910390f35b6100db60048036038101906100d69190610e74565b6102cf565b6040516100e89190610ebd565b60405180910390f35b61010b60048036038101906101069190610f69565b610328565b005b61012760048036038101906101229190610ce1565b610612565b6040516101349190610ebd565b60405180910390f35b61015760048036038101906101529190610ce1565b61063f565b60405161016693929190611014565b60405180910390f35b61018960048036038101906101849190610ce1565b61068a565b60405161019a959493929190610dee565b60405180910390f35b6101bd60048036038101906101b89190610e74565b610768565b6040516101cc93929190611014565b60405180910390f35b6101ef60048036038101906101ea919061104b565b6107b3565b005b60016020528060005260406000206000915090508060000154908060010160009054906101000a900473ffffffffffffffffffffffffffffffffffffffff1690806002015490806003018054610246906110ee565b80601f0160208091040260200160405190810160405280929190818152602001828054610272906110ee565b80156102bf5780601f10610294576101008083540402835291602001916102bf565b820191906000526020600020905b8154815290600101906020018083116102a257829003601f168201915b5050505050908060040154905085565b6000600260008373ffffffffffffffffffffffffffffffffffffffff1673ffffffffffffffffffffffffffffffffffffffff16815260200190815260200160002060010160089054906101000a900460ff169050919050565b600460009054906101000a900473ffffffffffffffffffffffffffffffffffffffff1673ffffffffffffffffffffffffffffffffffffffff166314daf5ae336040518263ffffffff1660e01b8152600401610383919061111f565b60006040518083038186803b15801561039b57600080fd5b505afa1580156103af573d6000803e3d6000fd5b50505050600560009054906101000a900473ffffffffffffffffffffffffffffffffffffffff1673ffffffffffffffffffffffffffffffffffffffff1663e9f9f2b83387876040518463ffffffff1660e01b81526004016104129392919061113a565b60006040518083038186803b15801561042a57600080fd5b505afa15801561043e573d6000803e3d6000fd5b5050505060018360ff161080610457575060058360ff16115b1561049957826040517f44c98a6e0000000000000000000000000000000000000000000000000000000081526004016104909190610ebd565b60405180910390fd5b6040518060a001604052808681526020013373ffffffffffffffffffffffffffffffffffffffff1681526020018460ff16815260200183838080601f016020809104026020016040519081016040528093929190818152602001838380828437600081840152601f19601f820116905080830192505050505050508152602001428152506000808781526020019081526020016000206000820151816000015560208201518160010160006101000a81548173ffffffffffffffffffffffffffffffffffffffff021916908373ffffffffffffffffffffffffffffffffffffffff16021790555060408201518160020155606082015181600301908161059f919061134c565b50608082015181600401559050506105b78484610a9e565b503373ffffffffffffffffffffffffffffffffffffffff16857f4a7d6db210e1be209986a4757e1a9bb894800e39df36500b3bb85af3dce8bb888585856040516106039392919061148b565b60405180910390a35050505050565b60006003600083815260200190815260200160002060010160089054906101000a900460ff169050919050565b60036020528060005260406000206000915090508060000154908060010160009054906101000a900467ffffffffffffffff16908060010160089054906101000a900460ff16905083565b60006020528060005260406000206000915090508060000154908060010160009054906101000a900473ffffffffffffffffffffffffffffffffffffffff16908060020154908060030180546106df906110ee565b80601f016020809104026020016040519081016040528092919081815260200182805461070b906110ee565b80156107585780601f1061072d57610100808354040283529160200191610758565b820191906000526020600020905b81548152906001019060200180831161073b57829003601f168201915b5050505050908060040154905085565b60026020528060005260406000206000915090508060000154908060010160009054906101000a900467ffffffffffffffff16908060010160089054906101000a900460ff16905083565b600460009054906101000a900473ffffffffffffffffffffffffffffffffffffffff1673ffffffffffffffffffffffffffffffffffffffff166314daf5ae336040518263ffffffff1660e01b815260040161080e919061111f565b60006040518083038186803b15801561082657600080fd5b505afa15801561083a573d6000803e3d6000fd5b50505050600460009054906101000a900473ffffffffffffffffffffffffffffffffffffffff1673ffffffffffffffffffffffffffffffffffffffff1663ba64ea7485336040518363ffffffff1660e01b815260040161089b9291906114bd565b60006040518083038186803b1580156108b357600080fd5b505afa1580156108c7573d6000803e3d6000fd5b5050505060018360ff16101580156108e3575060058360ff1611155b8390610925576040517f44c98a6e00000000000000000000000000000000000000000000000000000000815260040161091c9190610ebd565b60405180910390fd5b506040518060a001604052808581526020013373ffffffffffffffffffffffffffffffffffffffff1681526020018460ff16815260200183838080601f016020809104026020016040519081016040528093929190818152602001838380828437600081840152601f19601f82011690508083019250505050505050815260200142815250600160008681526020019081526020016000206000820151816000015560208201518160010160006101000a81548173ffffffffffffffffffffffffffffffffffffffff021916908373ffffffffffffffffffffffffffffffffffffffff160217905550604082015181600201556060820151816003019081610a2d919061134c565b5060808201518160040155905050610a458484610bc1565b3373ffffffffffffffffffffffffffffffffffffffff16847f998fe867aee823093ed7ec3e87edc7b2c046e9a623d00e4bb01249d416bae77d858585604051610a909392919061148b565b60405180910390a350505050565b600080600260008573ffffffffffffffffffffffffffffffffffffffff1673ffffffffffffffffffffffffffffffffffffffff1681526020019081526020016000209050600a83610aef9190611515565b60ff168160000154610b019190611552565b816000018190555060018160010160009054906101000a900467ffffffffffffffff16610b2e9190611586565b8160010160006101000a81548167ffffffffffffffff021916908367ffffffffffffffff1602179055508060010160009054906101000a900467ffffffffffffffff1667ffffffffffffffff168160000154610b8a91906115f1565b8160010160086101000a81548160ff021916908360ff1602179055508060010160089054906101000a900460ff1691505092915050565b6000600360008481526020019081526020016000209050600a82610be59190611515565b60ff168160000154610bf79190611552565b816000018190555060018160010160009054906101000a900467ffffffffffffffff16610c249190611586565b8160010160006101000a81548167ffffffffffffffff021916908367ffffffffffffffff1602179055508060010160009054906101000a900467ffffffffffffffff1667ffffffffffffffff168160000154610c8091906115f1565b8160010160086101000a81548160ff021916908360ff160217905550505050565b600080fd5b600080fd5b6000819050919050565b610cbe81610cab565b8114610cc957600080fd5b50565b600081359050610cdb81610cb5565b92915050565b600060208284031215610cf757610cf6610ca1565b5b6000610d0584828501610ccc565b91505092915050565b610d1781610cab565b82525050565b600073ffffffffffffffffffffffffffffffffffffffff82169050919050565b6000610d4882610d1d565b9050919050565b610d5881610d3d565b82525050565b600081519050919050565b600082825260208201905092915050565b60005b83811015610d98578082015181840152602081019050610d7d565b60008484015250505050565b6000601f19601f8301169050919050565b6000610dc082610d5e565b610dca8185610d69565b9350610dda818560208601610d7a565b610de381610da4565b840191505092915050565b600060a082019050610e036000830188610d0e565b610e106020830187610d4f565b610e1d6040830186610d0e565b8181036060830152610e2f8185610db5565b9050610e3e6080830184610d0e565b9695505050505050565b610e5181610d3d565b8114610e5c57600080fd5b50565b600081359050610e6e81610e48565b92915050565b600060208284031215610e8a57610e89610ca1565b5b6000610e9884828501610e5f565b91505092915050565b600060ff82169050919050565b610eb781610ea1565b82525050565b6000602082019050610ed26000830184610eae565b92915050565b610ee181610ea1565b8114610eec57600080fd5b50565b600081359050610efe81610ed8565b92915050565b600080fd5b600080fd5b600080fd5b60008083601f840112610f2957610f28610f04565b5b8235905067ffffffffffffffff811115610f4657610f45610f09565b5b602083019150836001820283011115610f6257610f61610f0e565b5b9250929050565b600080600080600060808688031215610f8557610f84610ca1565b5b6000610f9388828901610ccc565b9550506020610fa488828901610e5f565b9450506040610fb588828901610eef565b935050606086013567ffffffffffffffff811115610fd657610fd5610ca6565b5b610fe288828901610f13565b92509250509295509295909350565b600067ffffffffffffffff82169050919050565b61100e81610ff1565b82525050565b60006060820190506110296000830186610d0e565b6110366020830185611005565b6110436040830184610eae565b949350505050565b6000806000806060858703121561106557611064610ca1565b5b600061107387828801610ccc565b945050602061108487828801610eef565b935050604085013567ffffffffffffffff8111156110a5576110a4610ca6565b5b6110b187828801610f13565b925092505092959194509250565b7f4e487b7100000000000000000000000000000000000000000000000000000000600052602260045260246000fd5b6000600282049050600182168061110657607f821691505b602082108103611119576111186110bf565b5b50919050565b60006020820190506111346000830184610d4f565b92915050565b600060608201905061114f6000830186610d4f565b61115c6020830185610d0e565b6111696040830184610d4f565b949350505050565b7f4e487b7100000000000000000000000000000000000000000000000000000000600052604160045260246000fd5b60008190508160005260206000209050919050565b60006020601f8301049050919050565b600082821b905092915050565b6000600883026112027fffffffffffffffffffffffffffffffffffffffffffffffffffffffffffffffff826111c5565b61120c86836111c5565b95508019841693508086168417925050509392505050565b6000819050919050565b600061124961124461123f84610cab565b611224565b610cab565b9050919050565b6000819050919050565b6112638361122e565b61127761126f82611250565b8484546111d2565b825550505050565b600090565b61128c61127f565b61129781848461125a565b505050565b5b818110156112bb576112b0600082611284565b60018101905061129d565b5050565b601f821115611300576112d1816111a0565b6112da846111b5565b810160208510156112e9578190505b6112fd6112f5856111b5565b83018261129c565b50505b505050565b600082821c905092915050565b600061132360001984600802611305565b1980831691505092915050565b600061133c8383611312565b9150826002028217905092915050565b61135582610d5e565b67ffffffffffffffff81111561136e5761136d611171565b5b61137882546110ee565b6113838282856112bf565b600060209050601f8311600181146113b657600084156113a4578287015190505b6113ae8582611330565b865550611416565b601f1984166113c4866111a0565b60005b828110156113ec578489015182556001820191506020850194506020810190506113c7565b868310156114095784890151611405601f891682611312565b8355505b6001600288020188555050505b505050505050565b600061143961143461142f84610ea1565b611224565b610cab565b9050919050565b6114498161141e565b82525050565b82818337600083830152505050565b600061146a8385610d69565b935061147783858461144f565b61148083610da4565b840190509392505050565b60006040820190506114a06000830186611440565b81810360208301526114b381848661145e565b9050949350505050565b60006040820190506114d26000830185610d0e565b6114df6020830184610d4f565b9392505050565b7f4e487b7100000000000000000000000000000000000000000000000000000000600052601160045260246000fd5b600061152082610ea1565b915061152b83610ea1565b925082820261153981610ea1565b915080821461154b5761154a6114e6565b5b5092915050565b600061155d82610cab565b915061156883610cab565b92508282019050808211156115805761157f6114e6565b5b92915050565b600061159182610ff1565b915061159c83610ff1565b9250828201905067ffffffffffffffff8111156115bc576115bb6114e6565b5b92915050565b7f4e487b7100000000000000000000000000000000000000000000000000000000600052601260045260246000fd5b60006115fc82610cab565b915061160783610cab565b925082611617576116166115c2565b5b82820490509291505056fea2646970667358221220fc5c393c9ba470f90dd24ad2ce98bdd49d165be0ed03bc0f880d456c128ab8cb64736f6c634300081b0033",
  "linkReferences": {},
  "deployedLinkReferences": {}
}