{
  "_format": "hh-sol-artifact-1",
  "contractName": "SessionBooking",
  "sourceName": "contracts/abstract/SessionBooking.sol",
  "abi": [
    {
      "inputs": [
        {
          "internalType": "address",
          "name": "_tutorParmarket",
          "type": "address"
        }
      ],
      "stateMutability": "nonpayable",
      "type": "constructor"
    },
    {
      "inputs": [],
      "name": "SessionBooking__IncorrectAmount",
      "type": "error"
    },
    {
      "inputs": [],
      "name": "SessionBooking__InvalidInstructorAdderess",
      "type": "error"
    },
    {
      "inputs": [],
      "name": "SessionBooking__LessThanTenMintues",
      "type": "error"
    },
    {
      "inputs": [],
      "name": "SessionBooking__NotExceptedInstructor",
      "type": "error"
    },
    {
      "inputs": [],
      "name": "SessionBooking__NotExceptedStudent",
      "type": "error"
    },
    {
      "inputs": [],
      "name": "SessionBooking__NotOfferAccepted",
      "type": "error"
    },
    {
      "inputs": [],
      "name": "SessionBooking__NotStudent",
      "type": "error"
    },
    {
      "inputs": [],
      "name": "SessionBooking__OfferAccepted",
      "type": "error"
    },
    {
      "inputs": [],
      "name": "SessionBooking__OfferCanceled",
      "type": "error"
    },
    {
      "inputs": [],
      "name": "SessionBooking__PaymentFailed",
      "type": "error"
    },
    {
      "inputs": [],
      "name": "SessionBooking__SessionAlreadyCompleted",
      "type": "error"
    },
    {
      "inputs": [],
      "name": "SessionReview__InvalidInstructorAddress",
      "type": "error"
    },
    {
      "inputs": [],
      "name": "SessionReview__InvalidReviewer",
      "type": "error"
    },
    {
      "inputs": [],
      "name": "SessionReview__SessionNotCompleted",
      "type": "error"
    },
    {
      "anonymous": false,
      "inputs": [
        {
          "indexed": true,
          "internalType": "uint256",
          "name": "offerId",
          "type": "uint256"
        },
        {
          "indexed": true,
          "internalType": "address",
          "name": "student",
          "type": "address"
        },
        {
          "indexed": false,
          "internalType": "uint256",
          "name": "amount",
          "type": "uint256"
        }
      ],
      "name": "PaymentRefunded",
      "type": "event"
    },
    {
      "anonymous": false,
      "inputs": [
        {
          "indexed": true,
          "internalType": "uint256",
          "name": "offerId",
          "type": "uint256"
        },
        {
          "indexed": true,
          "internalType": "address",
          "name": "instructor",
          "type": "address"
        },
        {
          "indexed": false,
          "internalType": "uint256",
          "name": "amount",
          "type": "uint256"
        }
      ],
      "name": "PaymentReleased",
      "type": "event"
    },
    {
      "anonymous": false,
      "inputs": [
        {
          "indexed": true,
          "internalType": "uint256",
          "name": "offerId",
          "type": "uint256"
        },
        {
          "indexed": true,
          "internalType": "address",
          "name": "instructor",
          "type": "address"
        },
        {
          "indexed": false,
          "internalType": "uint256",
          "name": "amount",
          "type": "uint256"
        }
      ],
      "name": "SessionAccepted",
      "type": "event"
    },
    {
      "anonymous": false,
      "inputs": [
        {
          "indexed": true,
          "internalType": "uint256",
          "name": "offerId",
          "type": "uint256"
        },
        {
          "indexed": true,
          "internalType": "address",
          "name": "student",
          "type": "address"
        },
        {
          "indexed": true,
          "internalType": "address",
          "name": "instructor",
          "type": "address"
        },
        {
          "indexed": false,
          "internalType": "uint256",
          "name": "amount",
          "type": "uint256"
        },
        {
          "indexed": false,
          "internalType": "uint256",
          "name": "duration",
          "type": "uint256"
        }
      ],
      "name": "SessionOffered",
      "type": "event"
    },
    {
      "inputs": [
        {
          "internalType": "uint256",
          "name": "offerId",
          "type": "uint256"
        }
      ],
      "name": "acceptSessionOffer",
      "outputs": [],
      "stateMutability": "nonpayable",
      "type": "function"
    },
    {
      "inputs": [
        {
          "internalType": "uint256",
          "name": "offerId",
          "type": "uint256"
        }
      ],
      "name": "cancelSessionOffer",
      "outputs": [],
      "stateMutability": "nonpayable",
      "type": "function"
    },
    {
      "inputs": [
        {
          "internalType": "uint256",
          "name": "offerId",
          "type": "uint256"
        }
      ],
      "name": "confirmSessionCompletion",
      "outputs": [],
      "stateMutability": "nonpayable",
      "type": "function"
    },
    {
      "inputs": [
        {
          "internalType": "uint256",
          "name": "offerId",
          "type": "uint256"
        }
      ],
      "name": "getSessionOffer",
      "outputs": [
        {
          "components": [
            {
              "internalType": "uint256",
              "name": "offerId",
              "type": "uint256"
            },
            {
              "internalType": "address",
              "name": "student",
              "type": "address"
            },
            {
              "internalType": "bool",
              "name": "isAccepted",
              "type": "bool"
            },
            {
              "internalType": "bool",
              "name": "isCompleted",
              "type": "bool"
            },
            {
              "internalType": "address",
              "name": "instructor",
              "type": "address"
            },
            {
              "internalType": "bool",
              "name": "isCanceled",
              "type": "bool"
            },
            {
              "internalType": "uint256",
              "name": "amount",
              "type": "uint256"
            },
            {
              "internalType": "uint256",
              "name": "duration",
              "type": "uint256"
            },
            {
              "internalType": "uint256",
              "name": "timestamp",
              "type": "uint256"
            }
          ],
          "internalType": "struct ISessionBooking.SessionOffer",
          "name": "",
          "type": "tuple"
        }
      ],
      "stateMutability": "view",
      "type": "function"
    },
    {
      "inputs": [
        {
          "internalType": "address",
          "name": "instructor",
          "type": "address"
        },
        {
          "internalType": "uint256",
          "name": "amount",
          "type": "uint256"
        },
        {
          "internalType": "uint256",
          "name": "duration",
          "type": "uint256"
        }
      ],
      "name": "makeSessionOffer",
      "outputs": [
        {
          "internalType": "uint256",
          "name": "",
          "type": "uint256"
        }
      ],
      "stateMutability": "payable",
      "type": "function"
    },
    {
      "inputs": [],
      "name": "offerCounter",
      "outputs": [
        {
          "internalType": "uint256",
          "name": "",
          "type": "uint256"
        }
      ],
      "stateMutability": "view",
      "type": "function"
    },
    {
      "inputs": [
        {
          "internalType": "uint256",
          "name": "",
          "type": "uint256"
        }
      ],
      "name": "offers",
      "outputs": [
        {
          "internalType": "uint256",
          "name": "offerId",
          "type": "uint256"
        },
        {
          "internalType": "address",
          "name": "student",
          "type": "address"
        },
        {
          "internalType": "bool",
          "name": "isAccepted",
          "type": "bool"
        },
        {
          "internalType": "bool",
          "name": "isCompleted",
          "type": "bool"
        },
        {
          "internalType": "address",
          "name": "instructor",
          "type": "address"
        },
        {
          "internalType": "bool",
          "name": "isCanceled",
          "type": "bool"
        },
        {
          "internalType": "uint256",
          "name": "amount",
          "type": "uint256"
        },
        {
          "internalType": "uint256",
          "name": "duration",
          "type": "uint256"
        },
        {
          "internalType": "uint256",
          "name": "timestamp",
          "type": "uint256"
        }
      ],
      "stateMutability": "view",
      "type": "function"
    },
    {
      "inputs": [
        {
          "internalType": "address",
          "name": "user",
          "type": "address"
        },
        {
          "internalType": "uint256",
          "name": "offerId",
          "type": "uint256"
        },
        {
          "internalType": "address",
          "name": "instructor",
          "type": "address"
        }
      ],
      "name": "validateSessionReview",
      "outputs": [],
      "stateMutability": "view",
      "type": "function"
    }
  ],
  "bytecode": "0x608060405234801561001057600080fd5b50604051611751380380611751833981810160405281019061003291906100dc565b80600260006101000a81548173ffffffffffffffffffffffffffffffffffffffff021916908373ffffffffffffffffffffffffffffffffffffffff16021790555050610109565b600080fd5b600073ffffffffffffffffffffffffffffffffffffffff82169050919050565b60006100a98261007e565b9050919050565b6100b98161009e565b81146100c457600080fd5b50565b6000815190506100d6816100b0565b92915050565b6000602082840312156100f2576100f1610079565b5b6000610100848285016100c7565b91505092915050565b611639806101186000396000f3fe60806040526004361061007b5760003560e01c8063b7a3c1da1161004e578063b7a3c1da1461015b578063d80cb44c14610186578063e9f9f2b8146101af578063f66bef96146101d85761007b565b80632605f3d1146100805780632f3b2f95146100bd5780634d89c8ef146100ed5780638a72ea6a14610116575b600080fd5b34801561008c57600080fd5b506100a760048036038101906100a291906111f0565b610201565b6040516100b4919061133f565b60405180910390f35b6100d760048036038101906100d29190611387565b610353565b6040516100e491906113e9565b60405180910390f35b3480156100f957600080fd5b50610114600480360381019061010f91906111f0565b610713565b005b34801561012257600080fd5b5061013d600480360381019061013891906111f0565b610943565b60405161015299989796959493929190611422565b60405180910390f35b34801561016757600080fd5b506101706109f8565b60405161017d91906113e9565b60405180910390f35b34801561019257600080fd5b506101ad60048036038101906101a891906111f0565b6109fe565b005b3480156101bb57600080fd5b506101d660048036038101906101d191906114af565b610d07565b005b3480156101e457600080fd5b506101ff60048036038101906101fa91906111f0565b610ea0565b005b610209611137565b60008083815260200190815260200160002060405180610120016040529081600082015481526020016001820160009054906101000a900473ffffffffffffffffffffffffffffffffffffffff1673ffffffffffffffffffffffffffffffffffffffff1673ffffffffffffffffffffffffffffffffffffffff1681526020016001820160149054906101000a900460ff161515151581526020016001820160159054906101000a900460ff161515151581526020016002820160009054906101000a900473ffffffffffffffffffffffffffffffffffffffff1673ffffffffffffffffffffffffffffffffffffffff1673ffffffffffffffffffffffffffffffffffffffff1681526020016002820160149054906101000a900460ff1615151515815260200160038201548152602001600482015481526020016005820154815250509050919050565b6000600260009054906101000a900473ffffffffffffffffffffffffffffffffffffffff1673ffffffffffffffffffffffffffffffffffffffff166314daf5ae336040518263ffffffff1660e01b81526004016103b09190611502565b60006040518083038186803b1580156103c857600080fd5b505afa1580156103dc573d6000803e3d6000fd5b50505050600260009054906101000a900473ffffffffffffffffffffffffffffffffffffffff1673ffffffffffffffffffffffffffffffffffffffff16636acc4f41856040518263ffffffff1660e01b815260040161043b9190611502565b60006040518083038186803b15801561045357600080fd5b505afa158015610467573d6000803e3d6000fd5b505050508234146104a4576040517fde1895cb00000000000000000000000000000000000000000000000000000000815260040160405180910390fd5b6102588210156104e0576040517f2ef185a500000000000000000000000000000000000000000000000000000000815260040160405180910390fd5b600160008154809291906104f39061154c565b9190505550600060015490506040518061012001604052808281526020013373ffffffffffffffffffffffffffffffffffffffff1681526020016000151581526020016000151581526020018673ffffffffffffffffffffffffffffffffffffffff168152602001600015158152602001858152602001848152602001428152506000808381526020019081526020016000206000820151816000015560208201518160010160006101000a81548173ffffffffffffffffffffffffffffffffffffffff021916908373ffffffffffffffffffffffffffffffffffffffff16021790555060408201518160010160146101000a81548160ff02191690831515021790555060608201518160010160156101000a81548160ff02191690831515021790555060808201518160020160006101000a81548173ffffffffffffffffffffffffffffffffffffffff021916908373ffffffffffffffffffffffffffffffffffffffff16021790555060a08201518160020160146101000a81548160ff02191690831515021790555060c0820151816003015560e0820151816004015561010082015181600501559050508473ffffffffffffffffffffffffffffffffffffffff163373ffffffffffffffffffffffffffffffffffffffff16827f28dcdb06a46edaf0c2033ff59848280bd69dde194f52bd77cca7f5561b5925a18787604051610700929190611594565b60405180910390a4809150509392505050565b600260009054906101000a900473ffffffffffffffffffffffffffffffffffffffff1673ffffffffffffffffffffffffffffffffffffffff16636acc4f41336040518263ffffffff1660e01b815260040161076e9190611502565b60006040518083038186803b15801561078657600080fd5b505afa15801561079a573d6000803e3d6000fd5b50505050600080600083815260200190815260200160002090503373ffffffffffffffffffffffffffffffffffffffff168160020160009054906101000a900473ffffffffffffffffffffffffffffffffffffffff1673ffffffffffffffffffffffffffffffffffffffff161461083d576040517f78c1606a00000000000000000000000000000000000000000000000000000000815260040160405180910390fd5b8060020160149054906101000a900460ff1615610886576040517f7ee98f7900000000000000000000000000000000000000000000000000000000815260040160405180910390fd5b8060010160149054906101000a900460ff16156108cf576040517f381a050900000000000000000000000000000000000000000000000000000000815260040160405180910390fd5b60018160010160146101000a81548160ff0219169083151502179055503373ffffffffffffffffffffffffffffffffffffffff16827fdf9a6bd2acf0a2615a0f7b31c1454e6c9d08a7a3afee9b8537c7b30b62eb086c836003015460405161093791906113e9565b60405180910390a35050565b60006020528060005260406000206000915090508060000154908060010160009054906101000a900473ffffffffffffffffffffffffffffffffffffffff16908060010160149054906101000a900460ff16908060010160159054906101000a900460ff16908060020160009054906101000a900473ffffffffffffffffffffffffffffffffffffffff16908060020160149054906101000a900460ff16908060030154908060040154908060050154905089565b60015481565b600260009054906101000a900473ffffffffffffffffffffffffffffffffffffffff1673ffffffffffffffffffffffffffffffffffffffff166314daf5ae336040518263ffffffff1660e01b8152600401610a599190611502565b60006040518083038186803b158015610a7157600080fd5b505afa158015610a85573d6000803e3d6000fd5b505050506000806000838152602001908152602001600020905060008160010160009054906101000a900473ffffffffffffffffffffffffffffffffffffffff16905060008260020160009054906101000a900473ffffffffffffffffffffffffffffffffffffffff1690506000836003015490503373ffffffffffffffffffffffffffffffffffffffff168373ffffffffffffffffffffffffffffffffffffffff1614610b5f576040517f1abafe7000000000000000000000000000000000000000000000000000000000815260040160405180910390fd5b8360010160149054906101000a900460ff16610ba7576040517ffd888bb400000000000000000000000000000000000000000000000000000000815260040160405180910390fd5b8360010160159054906101000a900460ff1615610bf0576040517f0114b0aa00000000000000000000000000000000000000000000000000000000815260040160405180910390fd5b60018460010160156101000a81548160ff02191690831515021790555060008273ffffffffffffffffffffffffffffffffffffffff1682604051610c33906115ee565b60006040518083038185875af1925050503d8060008114610c70576040519150601f19603f3d011682016040523d82523d6000602084013e610c75565b606091505b5050905080610cb0576040517f9c9a598e00000000000000000000000000000000000000000000000000000000815260040160405180910390fd5b8273ffffffffffffffffffffffffffffffffffffffff16867f21d71db5be59bb9fa133895586b7404307dd33fb93b16db09dc6f1d9d7d231b084604051610cf791906113e9565b60405180910390a3505050505050565b8273ffffffffffffffffffffffffffffffffffffffff1660008084815260200190815260200160002060010160009054906101000a900473ffffffffffffffffffffffffffffffffffffffff1673ffffffffffffffffffffffffffffffffffffffff1614610da1576040517fe9d148ec00000000000000000000000000000000000000000000000000000000815260040160405180910390fd5b6001151560008084815260200190815260200160002060010160159054906101000a900460ff16151514610e01576040517fb095b48400000000000000000000000000000000000000000000000000000000815260040160405180910390fd5b8073ffffffffffffffffffffffffffffffffffffffff1660008084815260200190815260200160002060020160009054906101000a900473ffffffffffffffffffffffffffffffffffffffff1673ffffffffffffffffffffffffffffffffffffffff1614610e9b576040517fcdc5855400000000000000000000000000000000000000000000000000000000815260040160405180910390fd5b505050565b600260009054906101000a900473ffffffffffffffffffffffffffffffffffffffff1673ffffffffffffffffffffffffffffffffffffffff166314daf5ae336040518263ffffffff1660e01b8152600401610efb9190611502565b60006040518083038186803b158015610f1357600080fd5b505afa158015610f27573d6000803e3d6000fd5b505050506000806000838152602001908152602001600020905060008160010160009054906101000a900473ffffffffffffffffffffffffffffffffffffffff1690506000826003015490503373ffffffffffffffffffffffffffffffffffffffff168273ffffffffffffffffffffffffffffffffffffffff1614610fd8576040517f1abafe7000000000000000000000000000000000000000000000000000000000815260040160405180910390fd5b8260010160149054906101000a900460ff1615611021576040517f381a050900000000000000000000000000000000000000000000000000000000815260040160405180910390fd5b60018360020160146101000a81548160ff02191690831515021790555060008273ffffffffffffffffffffffffffffffffffffffff1682604051611064906115ee565b60006040518083038185875af1925050503d80600081146110a1576040519150601f19603f3d011682016040523d82523d6000602084013e6110a6565b606091505b50509050806110e1576040517f9c9a598e00000000000000000000000000000000000000000000000000000000815260040160405180910390fd5b8273ffffffffffffffffffffffffffffffffffffffff16857fe89ec1881a76229445bcd179b8c4b24f9edc7ddd87d07fb3b19c67ae9c6e27cc8460405161112891906113e9565b60405180910390a35050505050565b60405180610120016040528060008152602001600073ffffffffffffffffffffffffffffffffffffffff168152602001600015158152602001600015158152602001600073ffffffffffffffffffffffffffffffffffffffff1681526020016000151581526020016000815260200160008152602001600081525090565b600080fd5b6000819050919050565b6111cd816111ba565b81146111d857600080fd5b50565b6000813590506111ea816111c4565b92915050565b600060208284031215611206576112056111b5565b5b6000611214848285016111db565b91505092915050565b611226816111ba565b82525050565b600073ffffffffffffffffffffffffffffffffffffffff82169050919050565b60006112578261122c565b9050919050565b6112678161124c565b82525050565b60008115159050919050565b6112828161126d565b82525050565b6101208201600082015161129f600085018261121d565b5060208201516112b2602085018261125e565b5060408201516112c56040850182611279565b5060608201516112d86060850182611279565b5060808201516112eb608085018261125e565b5060a08201516112fe60a0850182611279565b5060c082015161131160c085018261121d565b5060e082015161132460e085018261121d565b5061010082015161133961010085018261121d565b50505050565b6000610120820190506113556000830184611288565b92915050565b6113648161124c565b811461136f57600080fd5b50565b6000813590506113818161135b565b92915050565b6000806000606084860312156113a05761139f6111b5565b5b60006113ae86828701611372565b93505060206113bf868287016111db565b92505060406113d0868287016111db565b9150509250925092565b6113e3816111ba565b82525050565b60006020820190506113fe60008301846113da565b92915050565b61140d8161124c565b82525050565b61141c8161126d565b82525050565b600061012082019050611438600083018c6113da565b611445602083018b611404565b611452604083018a611413565b61145f6060830189611413565b61146c6080830188611404565b61147960a0830187611413565b61148660c08301866113da565b61149360e08301856113da565b6114a16101008301846113da565b9a9950505050505050505050565b6000806000606084860312156114c8576114c76111b5565b5b60006114d686828701611372565b93505060206114e7868287016111db565b92505060406114f886828701611372565b9150509250925092565b60006020820190506115176000830184611404565b92915050565b7f4e487b7100000000000000000000000000000000000000000000000000000000600052601160045260246000fd5b6000611557826111ba565b91507fffffffffffffffffffffffffffffffffffffffffffffffffffffffffffffffff82036115895761158861151d565b5b600182019050919050565b60006040820190506115a960008301856113da565b6115b660208301846113da565b9392505050565b600081905092915050565b50565b60006115d86000836115bd565b91506115e3826115c8565b600082019050919050565b60006115f9826115cb565b915081905091905056fea2646970667358221220608454523016edee80529e8e9b27cbb25f68990efaac299b29ff5502b2027ccd64736f6c634300081b0033",
  "linkReferences": {},
  "deployedLinkReferences": {}
}