{
  "_format": "hh-sol-artifact-1",
  "contractName": "TutorPal",
  "sourceName": "contracts/tutorpalMarket.sol",
  "abi": [
    {
      "inputs": [],
      "name": "CourseReview_NotOwned",
      "type": "error"
    },
    {
      "inputs": [
        {
          "internalType": "address",
          "name": "user",
          "type": "address"
        }
      ],
      "name": "NotANewUser",
      "type": "error"
    },
    {
      "inputs": [],
      "name": "NotAdmin",
      "type": "error"
    },
    {
      "inputs": [],
      "name": "NotInstuctor",
      "type": "error"
    },
    {
      "inputs": [],
      "name": "NotStudent",
      "type": "error"
    },
    {
      "inputs": [],
      "name": "TutorPal__CourseSoldOut",
      "type": "error"
    },
    {
      "inputs": [],
      "name": "TutorPal__EmptyMetadataURI",
      "type": "error"
    },
    {
      "inputs": [],
      "name": "TutorPal__EmptySymbol",
      "type": "error"
    },
    {
      "inputs": [],
      "name": "TutorPal__EmptyTitle",
      "type": "error"
    },
    {
      "inputs": [],
      "name": "TutorPal__InsufficientPayment",
      "type": "error"
    },
    {
      "inputs": [
        {
          "internalType": "uint256",
          "name": "courseId",
          "type": "uint256"
        }
      ],
      "name": "TutorPal__InvalidCourseId",
      "type": "error"
    },
    {
      "inputs": [],
      "name": "TutorPal__InvalidInstructor",
      "type": "error"
    },
    {
      "inputs": [],
      "name": "TutorPal__InvalidMaxSupply",
      "type": "error"
    },
    {
      "inputs": [],
      "name": "TutorPal__InvalidPrice",
      "type": "error"
    },
    {
      "inputs": [],
      "name": "TutorPal__InvalidRating",
      "type": "error"
    },
    {
      "inputs": [],
      "name": "TutorPal__InvalidRoyalty",
      "type": "error"
    },
    {
      "inputs": [],
      "name": "TutorPal__PaymentFailed",
      "type": "error"
    },
    {
      "anonymous": false,
      "inputs": [
        {
          "indexed": true,
          "internalType": "address",
          "name": "courseAddress",
          "type": "address"
        },
        {
          "indexed": true,
          "internalType": "uint256",
          "name": "courseId",
          "type": "uint256"
        },
        {
          "indexed": true,
          "internalType": "address",
          "name": "instructor",
          "type": "address"
        },
        {
          "indexed": false,
          "internalType": "string",
          "name": "title",
          "type": "string"
        },
        {
          "indexed": false,
          "internalType": "uint256",
          "name": "maxSupply",
          "type": "uint256"
        },
        {
          "indexed": false,
          "internalType": "uint256",
          "name": "price",
          "type": "uint256"
        },
        {
          "indexed": false,
          "internalType": "uint256",
          "name": "royalties",
          "type": "uint256"
        },
        {
          "indexed": false,
          "internalType": "uint256",
          "name": "timestamp",
          "type": "uint256"
        }
      ],
      "name": "CourseListed",
      "type": "event"
    },
    {
      "anonymous": false,
      "inputs": [
        {
          "indexed": true,
          "internalType": "address",
          "name": "courseAddress",
          "type": "address"
        },
        {
          "indexed": true,
          "internalType": "uint256",
          "name": "tokenId",
          "type": "uint256"
        },
        {
          "indexed": true,
          "internalType": "address",
          "name": "buyer",
          "type": "address"
        },
        {
          "indexed": false,
          "internalType": "uint256",
          "name": "price",
          "type": "uint256"
        }
      ],
      "name": "NFTPurchased",
      "type": "event"
    },
    {
      "anonymous": false,
      "inputs": [
        {
          "indexed": true,
          "internalType": "address",
          "name": "newAdminAddress",
          "type": "address"
        },
        {
          "indexed": true,
          "internalType": "address",
          "name": "admin",
          "type": "address"
        }
      ],
      "name": "NewAdmin",
      "type": "event"
    },
    {
      "anonymous": false,
      "inputs": [
        {
          "indexed": true,
          "internalType": "address",
          "name": "removedAdmin",
          "type": "address"
        },
        {
          "indexed": true,
          "internalType": "address",
          "name": "admin",
          "type": "address"
        }
      ],
      "name": "RemovedAdmin",
      "type": "event"
    },
    {
      "anonymous": false,
      "inputs": [
        {
          "indexed": true,
          "internalType": "address",
          "name": "user",
          "type": "address"
        },
        {
          "indexed": false,
          "internalType": "string",
          "name": "displayName",
          "type": "string"
        },
        {
          "indexed": false,
          "internalType": "enum IDecentralizedProfiles.RoleType",
          "name": "roleType",
          "type": "uint8"
        }
      ],
      "name": "UserRegistered",
      "type": "event"
    },
    {
      "inputs": [
        {
          "internalType": "address",
          "name": "_user",
          "type": "address"
        }
      ],
      "name": "ValidInstructor",
      "outputs": [],
      "stateMutability": "view",
      "type": "function"
    },
    {
      "inputs": [
        {
          "internalType": "address",
          "name": "_user",
          "type": "address"
        }
      ],
      "name": "ValidStudent",
      "outputs": [],
      "stateMutability": "view",
      "type": "function"
    },
    {
      "inputs": [
        {
          "internalType": "address",
          "name": "admin_",
          "type": "address"
        }
      ],
      "name": "addAdmin",
      "outputs": [],
      "stateMutability": "nonpayable",
      "type": "function"
    },
    {
      "inputs": [
        {
          "internalType": "address",
          "name": "",
          "type": "address"
        }
      ],
      "name": "admins",
      "outputs": [
        {
          "internalType": "uint256",
          "name": "",
          "type": "uint256"
        }
      ],
      "stateMutability": "view",
      "type": "function"
    },
    {
      "inputs": [
        {
          "internalType": "uint256",
          "name": "",
          "type": "uint256"
        }
      ],
      "name": "allCourses",
      "outputs": [
        {
          "internalType": "address",
          "name": "",
          "type": "address"
        }
      ],
      "stateMutability": "view",
      "type": "function"
    },
    {
      "inputs": [
        {
          "internalType": "uint256",
          "name": "_courseId",
          "type": "uint256"
        }
      ],
      "name": "buyCourse",
      "outputs": [],
      "stateMutability": "payable",
      "type": "function"
    },
    {
      "inputs": [
        {
          "internalType": "uint256",
          "name": "id",
          "type": "uint256"
        }
      ],
      "name": "courseStructs",
      "outputs": [
        {
          "internalType": "string",
          "name": "title",
          "type": "string"
        },
        {
          "internalType": "string",
          "name": "symbol",
          "type": "string"
        },
        {
          "internalType": "string",
          "name": "metadataURI",
          "type": "string"
        },
        {
          "internalType": "address",
          "name": "instructor",
          "type": "address"
        },
        {
          "internalType": "uint16",
          "name": "royalties",
          "type": "uint16"
        },
        {
          "internalType": "uint256",
          "name": "maxSupply",
          "type": "uint256"
        },
        {
          "internalType": "uint256",
          "name": "price",
          "type": "uint256"
        },
        {
          "internalType": "uint256",
          "name": "totalMinted",
          "type": "uint256"
        },
        {
          "internalType": "uint256",
          "name": "timestamp",
          "type": "uint256"
        },
        {
          "internalType": "contract Course",
          "name": "course",
          "type": "address"
        },
        {
          "internalType": "uint8",
          "name": "rating",
          "type": "uint8"
        }
      ],
      "stateMutability": "view",
      "type": "function"
    },
    {
      "inputs": [
        {
          "internalType": "string",
          "name": "_title",
          "type": "string"
        },
        {
          "internalType": "string",
          "name": "_symbol",
          "type": "string"
        },
        {
          "internalType": "string",
          "name": "_metadataURI",
          "type": "string"
        },
        {
          "internalType": "uint256",
          "name": "_maxSupply",
          "type": "uint256"
        },
        {
          "internalType": "uint256",
          "name": "_price",
          "type": "uint256"
        },
        {
          "internalType": "uint16",
          "name": "_royalty",
          "type": "uint16"
        }
      ],
      "name": "createCourse",
      "outputs": [
        {
          "internalType": "contract Course",
          "name": "newCourse",
          "type": "address"
        },
        {
          "internalType": "uint256",
          "name": "currentId",
          "type": "uint256"
        }
      ],
      "stateMutability": "nonpayable",
      "type": "function"
    },
    {
      "inputs": [],
      "name": "createCourseCount",
      "outputs": [
        {
          "internalType": "uint256",
          "name": "",
          "type": "uint256"
        }
      ],
      "stateMutability": "view",
      "type": "function"
    },
    {
      "inputs": [],
      "name": "getAllCourses",
      "outputs": [
        {
          "internalType": "address[]",
          "name": "",
          "type": "address[]"
        }
      ],
      "stateMutability": "view",
      "type": "function"
    },
    {
      "inputs": [
        {
          "internalType": "uint256",
          "name": "_courseId",
          "type": "uint256"
        }
      ],
      "name": "getCoursebyId",
      "outputs": [
        {
          "components": [
            {
              "internalType": "string",
              "name": "title",
              "type": "string"
            },
            {
              "internalType": "string",
              "name": "symbol",
              "type": "string"
            },
            {
              "internalType": "string",
              "name": "metadataURI",
              "type": "string"
            },
            {
              "internalType": "address",
              "name": "instructor",
              "type": "address"
            },
            {
              "internalType": "uint16",
              "name": "royalties",
              "type": "uint16"
            },
            {
              "internalType": "uint256",
              "name": "maxSupply",
              "type": "uint256"
            },
            {
              "internalType": "uint256",
              "name": "price",
              "type": "uint256"
            },
            {
              "internalType": "uint256",
              "name": "totalMinted",
              "type": "uint256"
            },
            {
              "internalType": "uint256",
              "name": "timestamp",
              "type": "uint256"
            },
            {
              "internalType": "contract Course",
              "name": "course",
              "type": "address"
            },
            {
              "internalType": "uint8",
              "name": "rating",
              "type": "uint8"
            }
          ],
          "internalType": "struct TutorPal.CourseStruct",
          "name": "",
          "type": "tuple"
        }
      ],
      "stateMutability": "view",
      "type": "function"
    },
    {
      "inputs": [
        {
          "internalType": "address",
          "name": "_instructor",
          "type": "address"
        }
      ],
      "name": "getInstructorCourseIds",
      "outputs": [
        {
          "internalType": "uint256[]",
          "name": "",
          "type": "uint256[]"
        }
      ],
      "stateMutability": "view",
      "type": "function"
    },
    {
      "inputs": [
        {
          "internalType": "address",
          "name": "_instructor",
          "type": "address"
        }
      ],
      "name": "getInstructorCourses",
      "outputs": [
        {
          "internalType": "address[]",
          "name": "",
          "type": "address[]"
        }
      ],
      "stateMutability": "view",
      "type": "function"
    },
    {
      "inputs": [
        {
          "internalType": "address",
          "name": "_user",
          "type": "address"
        }
      ],
      "name": "getUserProfile",
      "outputs": [
        {
          "internalType": "string",
          "name": "displayName",
          "type": "string"
        },
        {
          "internalType": "enum IDecentralizedProfiles.RoleType",
          "name": "roleType",
          "type": "uint8"
        },
        {
          "internalType": "bool",
          "name": "isRegistered",
          "type": "bool"
        }
      ],
      "stateMutability": "view",
      "type": "function"
    },
    {
      "inputs": [
        {
          "internalType": "string",
          "name": "_displayName",
          "type": "string"
        },
        {
          "internalType": "enum IDecentralizedProfiles.RoleType",
          "name": "_roleType",
          "type": "uint8"
        }
      ],
      "name": "registerUser",
      "outputs": [],
      "stateMutability": "nonpayable",
      "type": "function"
    },
    {
      "inputs": [
        {
          "internalType": "address",
          "name": "admin",
          "type": "address"
        }
      ],
      "name": "removeAdmin",
      "outputs": [],
      "stateMutability": "nonpayable",
      "type": "function"
    },
    {
      "inputs": [
        {
          "internalType": "uint256",
          "name": "courseId",
          "type": "uint256"
        },
        {
          "internalType": "address",
          "name": "user",
          "type": "address"
        }
      ],
      "name": "validateCourseReview",
      "outputs": [],
      "stateMutability": "view",
      "type": "function"
    }
  ],
  "bytecode": "0x6080604052348015600f57600080fd5b5060018060003373ffffffffffffffffffffffffffffffffffffffff1673ffffffffffffffffffffffffffffffffffffffff16815260200190815260200160002081905550615f63806100636000396000f3fe6080604052600436106100fe5760003560e01c80635899462b11610095578063987ee15611610064578063987ee156146103415780639f766f2914610380578063ba64ea74146103bd578063bc725e74146103e6578063cb88dc7914610423576100fe565b80635899462b1461027d5780636acc4f41146102a857806370480275146102d15780637ffef407146102fa576100fe565b8063338e12eb116100d1578063338e12eb1461019c578063429b62e5146101c557806344674e431461020257806357eb333c1461023f576100fe565b806304e48bd11461010357806314daf5ae1461012e5780631785f53c14610157578063194d73a214610180575b600080fd5b34801561010f57600080fd5b50610118610460565b60405161012591906120d2565b60405180910390f35b34801561013a57600080fd5b5061015560048036038101906101509190612134565b6104ee565b005b34801561016357600080fd5b5061017e60048036038101906101799190612134565b61059d565b005b61019a60048036038101906101959190612197565b6106b7565b005b3480156101a857600080fd5b506101c360048036038101906101be919061232f565b610c43565b005b3480156101d157600080fd5b506101ec60048036038101906101e79190612134565b610e17565b6040516101f9919061239a565b60405180910390f35b34801561020e57600080fd5b5061022960048036038101906102249190612134565b610e2f565b60405161023691906120d2565b60405180910390f35b34801561024b57600080fd5b50610266600480360381019061026191906123ef565b610eff565b60405161027492919061252f565b60405180910390f35b34801561028957600080fd5b506102926114ca565b60405161029f919061239a565b60405180910390f35b3480156102b457600080fd5b506102cf60048036038101906102ca9190612134565b6114d0565b005b3480156102dd57600080fd5b506102f860048036038101906102f39190612134565b61157e565b005b34801561030657600080fd5b50610321600480360381019061031c9190612197565b611697565b6040516103389b9a99989796959493929190612611565b60405180910390f35b34801561034d57600080fd5b5061036860048036038101906103639190612134565b6118e4565b60405161037793929190612763565b60405180910390f35b34801561038c57600080fd5b506103a760048036038101906103a29190612134565b611a45565b6040516103b4919061285f565b60405180910390f35b3480156103c957600080fd5b506103e460048036038101906103df9190612881565b611adf565b005b3480156103f257600080fd5b5061040d60048036038101906104089190612197565b611bcc565b60405161041a9190612a35565b60405180910390f35b34801561042f57600080fd5b5061044a60048036038101906104459190612197565b611f09565b6040516104579190612a57565b60405180910390f35b606060058054806020026020016040519081016040528092919081815260200182805480156104e457602002820191906000526020600020905b8160009054906101000a900473ffffffffffffffffffffffffffffffffffffffff1673ffffffffffffffffffffffffffffffffffffffff168152602001906001019080831161049a575b5050505050905090565b60016002811115610502576105016126d1565b5b6000808373ffffffffffffffffffffffffffffffffffffffff1673ffffffffffffffffffffffffffffffffffffffff16815260200190815260200160002060010160009054906101000a900460ff166002811115610563576105626126d1565b5b1461059a576040517f971730a900000000000000000000000000000000000000000000000000000000815260040160405180910390fd5b50565b60018060003373ffffffffffffffffffffffffffffffffffffffff1673ffffffffffffffffffffffffffffffffffffffff1681526020019081526020016000205414610615576040517f7bfa4b9f00000000000000000000000000000000000000000000000000000000815260040160405180910390fd5b6000600160008373ffffffffffffffffffffffffffffffffffffffff1673ffffffffffffffffffffffffffffffffffffffff168152602001908152602001600020819055503373ffffffffffffffffffffffffffffffffffffffff168173ffffffffffffffffffffffffffffffffffffffff167f787a2e12f4a55b658b8f573c32432ee11a5e8b51677d1e1e937aaf6a0bb5776e60405160405180910390a350565b6106c0336104ee565b60025481108190610707576040517fbb38f31a0000000000000000000000000000000000000000000000000000000081526004016106fe919061239a565b60405180910390fd5b506000600460008381526020019081526020016000206040518061016001604052908160008201805461073990612aa1565b80601f016020809104026020016040519081016040528092919081815260200182805461076590612aa1565b80156107b25780601f10610787576101008083540402835291602001916107b2565b820191906000526020600020905b81548152906001019060200180831161079557829003601f168201915b505050505081526020016001820180546107cb90612aa1565b80601f01602080910402602001604051908101604052809291908181526020018280546107f790612aa1565b80156108445780601f1061081957610100808354040283529160200191610844565b820191906000526020600020905b81548152906001019060200180831161082757829003601f168201915b5050505050815260200160028201805461085d90612aa1565b80601f016020809104026020016040519081016040528092919081815260200182805461088990612aa1565b80156108d65780601f106108ab576101008083540402835291602001916108d6565b820191906000526020600020905b8154815290600101906020018083116108b957829003601f168201915b505050505081526020016003820160009054906101000a900473ffffffffffffffffffffffffffffffffffffffff1673ffffffffffffffffffffffffffffffffffffffff1673ffffffffffffffffffffffffffffffffffffffff1681526020016003820160149054906101000a900461ffff1661ffff1661ffff168152602001600482015481526020016005820154815260200160068201548152602001600782015481526020016008820160009054906101000a900473ffffffffffffffffffffffffffffffffffffffff1673ffffffffffffffffffffffffffffffffffffffff1673ffffffffffffffffffffffffffffffffffffffff1681526020016008820160149054906101000a900460ff1660ff1660ff16815250509050600081610120015190508160c00151341015610a3a576040517f75ba761b00000000000000000000000000000000000000000000000000000000815260040160405180910390fd5b8160a001518260e0015110610a7b576040517f895caf2500000000000000000000000000000000000000000000000000000000815260040160405180910390fd5b60008173ffffffffffffffffffffffffffffffffffffffff16638b85f839336040518263ffffffff1660e01b8152600401610ab69190612a57565b6020604051808303816000875af1158015610ad5573d6000803e3d6000fd5b505050506040513d601f19601f82011682018060405250810190610af99190612ae7565b9050600460008581526020019081526020016000206004016000815480929190610b2290612b43565b91905055506000836060015173ffffffffffffffffffffffffffffffffffffffff168460c00151604051610b5590612bbc565b60006040518083038185875af1925050503d8060008114610b92576040519150601f19603f3d011682016040523d82523d6000602084013e610b97565b606091505b5050905080610bd2576040517fb9be076d00000000000000000000000000000000000000000000000000000000815260040160405180910390fd5b3373ffffffffffffffffffffffffffffffffffffffff16828473ffffffffffffffffffffffffffffffffffffffff167fd0de3e759b6d8ae4ab8dfd56f0869b691034bf2f14b896155287e5cd61d66a708760c00151604051610c34919061239a565b60405180910390a45050505050565b600015156000803373ffffffffffffffffffffffffffffffffffffffff1673ffffffffffffffffffffffffffffffffffffffff16815260200190815260200160002060010160019054906101000a900460ff161515143390610cdb576040517f4a2c8287000000000000000000000000000000000000000000000000000000008152600401610cd29190612a57565b60405180910390fd5b506040518060800160405280838152602001826002811115610d0057610cff6126d1565b5b8152602001600115158152602001428152506000803373ffffffffffffffffffffffffffffffffffffffff1673ffffffffffffffffffffffffffffffffffffffff1681526020019081526020016000206000820151816000019081610d659190612d73565b5060208201518160010160006101000a81548160ff02191690836002811115610d9157610d906126d1565b5b021790555060408201518160010160016101000a81548160ff021916908315150217905550606082015181600201559050503373ffffffffffffffffffffffffffffffffffffffff167fc2e5d5da58bd71d1a2d14cdef02a4256d971b728088f8190d067ccfbae3bd73e8383604051610e0b929190612e45565b60405180910390a25050565b60016020528060005260406000206000915090505481565b6060600360008373ffffffffffffffffffffffffffffffffffffffff1673ffffffffffffffffffffffffffffffffffffffff168152602001908152602001600020600001805480602002602001604051908101604052809291908181526020018280548015610ef357602002820191906000526020600020905b8160009054906101000a900473ffffffffffffffffffffffffffffffffffffffff1673ffffffffffffffffffffffffffffffffffffffff1681526020019060010190808311610ea9575b50505050509050919050565b600080610f0b336114d0565b600254905060008511610f4a576040517f540453d000000000000000000000000000000000000000000000000000000000815260040160405180910390fd5b60008411610f84576040517f031ea1bf00000000000000000000000000000000000000000000000000000000815260040160405180910390fd5b6109c48361ffff161115610fc4576040517f0ba4be3200000000000000000000000000000000000000000000000000000000815260040160405180910390fd5b60008361ffff1611611002576040517f0ba4be3200000000000000000000000000000000000000000000000000000000815260040160405180910390fd5b600088511161103d576040517fcb2b9cae00000000000000000000000000000000000000000000000000000000815260040160405180910390fd5b6000875111611078576040517f7f7a5f3300000000000000000000000000000000000000000000000000000000815260040160405180910390fd5b60008651116110b3576040517fe25a7eac00000000000000000000000000000000000000000000000000000000815260040160405180910390fd5b30888833898989896040516110c790611f48565b6110d8989796959493929190612ea6565b604051809103906000f0801580156110f4573d6000803e3d6000fd5b5091506040518061016001604052808981526020018881526020018781526020013373ffffffffffffffffffffffffffffffffffffffff1681526020018461ffff168152602001868152602001858152602001600081526020014281526020018373ffffffffffffffffffffffffffffffffffffffff168152602001600060ff168152506004600083815260200190815260200160002060008201518160000190816111a09190612d73565b5060208201518160010190816111b69190612d73565b5060408201518160020190816111cc9190612d73565b5060608201518160030160006101000a81548173ffffffffffffffffffffffffffffffffffffffff021916908373ffffffffffffffffffffffffffffffffffffffff16021790555060808201518160030160146101000a81548161ffff021916908361ffff16021790555060a0820151816004015560c0820151816005015560e0820151816006015561010082015181600701556101208201518160080160006101000a81548173ffffffffffffffffffffffffffffffffffffffff021916908373ffffffffffffffffffffffffffffffffffffffff1602179055506101408201518160080160146101000a81548160ff021916908360ff160217905550905050600360003373ffffffffffffffffffffffffffffffffffffffff1673ffffffffffffffffffffffffffffffffffffffff168152602001908152602001600020600001829080600181540180825580915050600190039060005260206000200160009091909190916101000a81548173ffffffffffffffffffffffffffffffffffffffff021916908373ffffffffffffffffffffffffffffffffffffffff160217905550600360003373ffffffffffffffffffffffffffffffffffffffff1673ffffffffffffffffffffffffffffffffffffffff1681526020019081526020016000206001018190806001815401808255809150506001900390600052602060002001600090919091909150556005829080600181540180825580915050600190039060005260206000200160009091909190916101000a81548173ffffffffffffffffffffffffffffffffffffffff021916908373ffffffffffffffffffffffffffffffffffffffff160217905550600160025461144b9190612f39565b6002819055503373ffffffffffffffffffffffffffffffffffffffff16818373ffffffffffffffffffffffffffffffffffffffff167f4f5ca94d77d004cc510163465b13260e7eecfb8a9f8d653604c35b4175442d268b898989426040516114b7959493929190612f6d565b60405180910390a4965096945050505050565b60025481565b6002808111156114e3576114e26126d1565b5b6000808373ffffffffffffffffffffffffffffffffffffffff1673ffffffffffffffffffffffffffffffffffffffff16815260200190815260200160002060010160009054906101000a900460ff166002811115611544576115436126d1565b5b1461157b576040517f73c0d46200000000000000000000000000000000000000000000000000000000815260040160405180910390fd5b50565b60018060003373ffffffffffffffffffffffffffffffffffffffff1673ffffffffffffffffffffffffffffffffffffffff16815260200190815260200160002054146115f6576040517f7bfa4b9f00000000000000000000000000000000000000000000000000000000815260040160405180910390fd5b60018060008373ffffffffffffffffffffffffffffffffffffffff1673ffffffffffffffffffffffffffffffffffffffff168152602001908152602001600020819055503373ffffffffffffffffffffffffffffffffffffffff168173ffffffffffffffffffffffffffffffffffffffff167ff9ffabca9c8276e99321725bcb43fb076a6c66a54b7f21c4e8146d8519b417dc60405160405180910390a350565b60046020528060005260406000206000915090508060000180546116ba90612aa1565b80601f01602080910402602001604051908101604052809291908181526020018280546116e690612aa1565b80156117335780601f1061170857610100808354040283529160200191611733565b820191906000526020600020905b81548152906001019060200180831161171657829003601f168201915b50505050509080600101805461174890612aa1565b80601f016020809104026020016040519081016040528092919081815260200182805461177490612aa1565b80156117c15780601f10611796576101008083540402835291602001916117c1565b820191906000526020600020905b8154815290600101906020018083116117a457829003601f168201915b5050505050908060020180546117d690612aa1565b80601f016020809104026020016040519081016040528092919081815260200182805461180290612aa1565b801561184f5780601f106118245761010080835404028352916020019161184f565b820191906000526020600020905b81548152906001019060200180831161183257829003601f168201915b5050505050908060030160009054906101000a900473ffffffffffffffffffffffffffffffffffffffff16908060030160149054906101000a900461ffff16908060040154908060050154908060060154908060070154908060080160009054906101000a900473ffffffffffffffffffffffffffffffffffffffff16908060080160149054906101000a900460ff1690508b565b606060008060008060008673ffffffffffffffffffffffffffffffffffffffff1673ffffffffffffffffffffffffffffffffffffffff16815260200190815260200160002060405180608001604052908160008201805461194490612aa1565b80601f016020809104026020016040519081016040528092919081815260200182805461197090612aa1565b80156119bd5780601f10611992576101008083540402835291602001916119bd565b820191906000526020600020905b8154815290600101906020018083116119a057829003601f168201915b505050505081526020016001820160009054906101000a900460ff1660028111156119eb576119ea6126d1565b5b60028111156119fd576119fc6126d1565b5b81526020016001820160019054906101000a900460ff161515151581526020016002820154815250509050806000015181602001518260400151935093509350509193909250565b6060600360008373ffffffffffffffffffffffffffffffffffffffff1673ffffffffffffffffffffffffffffffffffffffff168152602001908152602001600020600101805480602002602001604051908101604052809291908181526020018280548015611ad357602002820191906000526020600020905b815481526020019060010190808311611abf575b50505050509050919050565b60006004600084815260200190815260200160002060080160009054906101000a900473ffffffffffffffffffffffffffffffffffffffff1673ffffffffffffffffffffffffffffffffffffffff166370a08231836040518263ffffffff1660e01b8152600401611b509190612a57565b602060405180830381865afa158015611b6d573d6000803e3d6000fd5b505050506040513d601f19601f82011682018060405250810190611b919190612ae7565b11611bc8576040517f973e7e1100000000000000000000000000000000000000000000000000000000815260040160405180910390fd5b5050565b611bd4611f55565b60025482108290611c1b576040517fbb38f31a000000000000000000000000000000000000000000000000000000008152600401611c12919061239a565b60405180910390fd5b506004600083815260200190815260200160002060405180610160016040529081600082018054611c4b90612aa1565b80601f0160208091040260200160405190810160405280929190818152602001828054611c7790612aa1565b8015611cc45780601f10611c9957610100808354040283529160200191611cc4565b820191906000526020600020905b815481529060010190602001808311611ca757829003601f168201915b50505050508152602001600182018054611cdd90612aa1565b80601f0160208091040260200160405190810160405280929190818152602001828054611d0990612aa1565b8015611d565780601f10611d2b57610100808354040283529160200191611d56565b820191906000526020600020905b815481529060010190602001808311611d3957829003601f168201915b50505050508152602001600282018054611d6f90612aa1565b80601f0160208091040260200160405190810160405280929190818152602001828054611d9b90612aa1565b8015611de85780601f10611dbd57610100808354040283529160200191611de8565b820191906000526020600020905b815481529060010190602001808311611dcb57829003601f168201915b505050505081526020016003820160009054906101000a900473ffffffffffffffffffffffffffffffffffffffff1673ffffffffffffffffffffffffffffffffffffffff1673ffffffffffffffffffffffffffffffffffffffff1681526020016003820160149054906101000a900461ffff1661ffff1661ffff168152602001600482015481526020016005820154815260200160068201548152602001600782015481526020016008820160009054906101000a900473ffffffffffffffffffffffffffffffffffffffff1673ffffffffffffffffffffffffffffffffffffffff1673ffffffffffffffffffffffffffffffffffffffff1681526020016008820160149054906101000a900460ff1660ff1660ff16815250509050919050565b60058181548110611f1957600080fd5b906000526020600020016000915054906101000a900473ffffffffffffffffffffffffffffffffffffffff1681565b612f6680612fc883390190565b604051806101600160405280606081526020016060815260200160608152602001600073ffffffffffffffffffffffffffffffffffffffff168152602001600061ffff16815260200160008152602001600081526020016000815260200160008152602001600073ffffffffffffffffffffffffffffffffffffffff168152602001600060ff1681525090565b600081519050919050565b600082825260208201905092915050565b6000819050602082019050919050565b600073ffffffffffffffffffffffffffffffffffffffff82169050919050565b60006120398261200e565b9050919050565b6120498161202e565b82525050565b600061205b8383612040565b60208301905092915050565b6000602082019050919050565b600061207f82611fe2565b6120898185611fed565b935061209483611ffe565b8060005b838110156120c55781516120ac888261204f565b97506120b783612067565b925050600181019050612098565b5085935050505092915050565b600060208201905081810360008301526120ec8184612074565b905092915050565b6000604051905090565b600080fd5b600080fd5b6121118161202e565b811461211c57600080fd5b50565b60008135905061212e81612108565b92915050565b60006020828403121561214a576121496120fe565b5b60006121588482850161211f565b91505092915050565b6000819050919050565b61217481612161565b811461217f57600080fd5b50565b6000813590506121918161216b565b92915050565b6000602082840312156121ad576121ac6120fe565b5b60006121bb84828501612182565b91505092915050565b600080fd5b600080fd5b6000601f19601f8301169050919050565b7f4e487b7100000000000000000000000000000000000000000000000000000000600052604160045260246000fd5b612217826121ce565b810181811067ffffffffffffffff82111715612236576122356121df565b5b80604052505050565b60006122496120f4565b9050612255828261220e565b919050565b600067ffffffffffffffff821115612275576122746121df565b5b61227e826121ce565b9050602081019050919050565b82818337600083830152505050565b60006122ad6122a88461225a565b61223f565b9050828152602081018484840111156122c9576122c86121c9565b5b6122d484828561228b565b509392505050565b600082601f8301126122f1576122f06121c4565b5b813561230184826020860161229a565b91505092915050565b6003811061231757600080fd5b50565b6000813590506123298161230a565b92915050565b60008060408385031215612346576123456120fe565b5b600083013567ffffffffffffffff81111561236457612363612103565b5b612370858286016122dc565b92505060206123818582860161231a565b9150509250929050565b61239481612161565b82525050565b60006020820190506123af600083018461238b565b92915050565b600061ffff82169050919050565b6123cc816123b5565b81146123d757600080fd5b50565b6000813590506123e9816123c3565b92915050565b60008060008060008060c0878903121561240c5761240b6120fe565b5b600087013567ffffffffffffffff81111561242a57612429612103565b5b61243689828a016122dc565b965050602087013567ffffffffffffffff81111561245757612456612103565b5b61246389828a016122dc565b955050604087013567ffffffffffffffff81111561248457612483612103565b5b61249089828a016122dc565b94505060606124a189828a01612182565b93505060806124b289828a01612182565b92505060a06124c389828a016123da565b9150509295509295509295565b6000819050919050565b60006124f56124f06124eb8461200e565b6124d0565b61200e565b9050919050565b6000612507826124da565b9050919050565b6000612519826124fc565b9050919050565b6125298161250e565b82525050565b60006040820190506125446000830185612520565b612551602083018461238b565b9392505050565b600081519050919050565b600082825260208201905092915050565b60005b83811015612592578082015181840152602081019050612577565b60008484015250505050565b60006125a982612558565b6125b38185612563565b93506125c3818560208601612574565b6125cc816121ce565b840191505092915050565b6125e08161202e565b82525050565b6125ef816123b5565b82525050565b600060ff82169050919050565b61260b816125f5565b82525050565b600061016082019050818103600083015261262c818e61259e565b90508181036020830152612640818d61259e565b90508181036040830152612654818c61259e565b9050612663606083018b6125d7565b612670608083018a6125e6565b61267d60a083018961238b565b61268a60c083018861238b565b61269760e083018761238b565b6126a561010083018661238b565b6126b3610120830185612520565b6126c1610140830184612602565b9c9b505050505050505050505050565b7f4e487b7100000000000000000000000000000000000000000000000000000000600052602160045260246000fd5b60038110612711576127106126d1565b5b50565b600081905061272282612700565b919050565b600061273282612714565b9050919050565b61274281612727565b82525050565b60008115159050919050565b61275d81612748565b82525050565b6000606082019050818103600083015261277d818661259e565b905061278c6020830185612739565b6127996040830184612754565b949350505050565b600081519050919050565b600082825260208201905092915050565b6000819050602082019050919050565b6127d681612161565b82525050565b60006127e883836127cd565b60208301905092915050565b6000602082019050919050565b600061280c826127a1565b61281681856127ac565b9350612821836127bd565b8060005b8381101561285257815161283988826127dc565b9750612844836127f4565b925050600181019050612825565b5085935050505092915050565b600060208201905081810360008301526128798184612801565b905092915050565b60008060408385031215612898576128976120fe565b5b60006128a685828601612182565b92505060206128b78582860161211f565b9150509250929050565b600082825260208201905092915050565b60006128dd82612558565b6128e781856128c1565b93506128f7818560208601612574565b612900816121ce565b840191505092915050565b612914816123b5565b82525050565b6129238161250e565b82525050565b612932816125f5565b82525050565b600061016083016000830151848203600086015261295682826128d2565b9150506020830151848203602086015261297082826128d2565b9150506040830151848203604086015261298a82826128d2565b915050606083015161299f6060860182612040565b5060808301516129b2608086018261290b565b5060a08301516129c560a08601826127cd565b5060c08301516129d860c08601826127cd565b5060e08301516129eb60e08601826127cd565b50610100830151612a006101008601826127cd565b50610120830151612a1561012086018261291a565b50610140830151612a2a610140860182612929565b508091505092915050565b60006020820190508181036000830152612a4f8184612938565b905092915050565b6000602082019050612a6c60008301846125d7565b92915050565b7f4e487b7100000000000000000000000000000000000000000000000000000000600052602260045260246000fd5b60006002820490506001821680612ab957607f821691505b602082108103612acc57612acb612a72565b5b50919050565b600081519050612ae18161216b565b92915050565b600060208284031215612afd57612afc6120fe565b5b6000612b0b84828501612ad2565b91505092915050565b7f4e487b7100000000000000000000000000000000000000000000000000000000600052601160045260246000fd5b6000612b4e82612161565b91507fffffffffffffffffffffffffffffffffffffffffffffffffffffffffffffffff8203612b8057612b7f612b14565b5b600182019050919050565b600081905092915050565b50565b6000612ba6600083612b8b565b9150612bb182612b96565b600082019050919050565b6000612bc782612b99565b9150819050919050565b60008190508160005260206000209050919050565b60006020601f8301049050919050565b600082821b905092915050565b600060088302612c337fffffffffffffffffffffffffffffffffffffffffffffffffffffffffffffffff82612bf6565b612c3d8683612bf6565b95508019841693508086168417925050509392505050565b6000612c70612c6b612c6684612161565b6124d0565b612161565b9050919050565b6000819050919050565b612c8a83612c55565b612c9e612c9682612c77565b848454612c03565b825550505050565b600090565b612cb3612ca6565b612cbe818484612c81565b505050565b5b81811015612ce257612cd7600082612cab565b600181019050612cc4565b5050565b601f821115612d2757612cf881612bd1565b612d0184612be6565b81016020851015612d10578190505b612d24612d1c85612be6565b830182612cc3565b50505b505050565b600082821c905092915050565b6000612d4a60001984600802612d2c565b1980831691505092915050565b6000612d638383612d39565b9150826002028217905092915050565b612d7c82612558565b67ffffffffffffffff811115612d9557612d946121df565b5b612d9f8254612aa1565b612daa828285612ce6565b600060209050601f831160018114612ddd5760008415612dcb578287015190505b612dd58582612d57565b865550612e3d565b601f198416612deb86612bd1565b60005b82811015612e1357848901518255600182019150602085019450602081019050612dee565b86831015612e305784890151612e2c601f891682612d39565b8355505b6001600288020188555050505b505050505050565b60006040820190508181036000830152612e5f818561259e565b9050612e6e6020830184612739565b9392505050565b6000612e90612e8b612e86846123b5565b6124d0565b612161565b9050919050565b612ea081612e75565b82525050565b600061010082019050612ebc600083018b6125d7565b8181036020830152612ece818a61259e565b90508181036040830152612ee2818961259e565b9050612ef160608301886125d7565b8181036080830152612f03818761259e565b9050612f1260a083018661238b565b612f1f60c083018561238b565b612f2c60e0830184612e97565b9998505050505050505050565b6000612f4482612161565b9150612f4f83612161565b9250828201905080821115612f6757612f66612b14565b5b92915050565b600060a0820190508181036000830152612f87818861259e565b9050612f96602083018761238b565b612fa3604083018661238b565b612fb06060830185612e97565b612fbd608083018461238b565b969550505050505056fe608060405234801561001057600080fd5b50604051612f66380380612f6683398181016040528101906100329190610313565b868681600090816100439190610634565b5080600190816100539190610634565b50505087600d60006101000a81548173ffffffffffffffffffffffffffffffffffffffff021916908373ffffffffffffffffffffffffffffffffffffffff16021790555084600760006101000a81548173ffffffffffffffffffffffffffffffffffffffff021916908373ffffffffffffffffffffffffffffffffffffffff16021790555083600890816100e79190610634565b508260098190555081600a8190555080600b819055505050505050505050610706565b6000604051905090565b600080fd5b600080fd5b600073ffffffffffffffffffffffffffffffffffffffff82169050919050565b60006101498261011e565b9050919050565b6101598161013e565b811461016457600080fd5b50565b60008151905061017681610150565b92915050565b600080fd5b600080fd5b6000601f19601f8301169050919050565b7f4e487b7100000000000000000000000000000000000000000000000000000000600052604160045260246000fd5b6101cf82610186565b810181811067ffffffffffffffff821117156101ee576101ed610197565b5b80604052505050565b600061020161010a565b905061020d82826101c6565b919050565b600067ffffffffffffffff82111561022d5761022c610197565b5b61023682610186565b9050602081019050919050565b60005b83811015610261578082015181840152602081019050610246565b60008484015250505050565b600061028061027b84610212565b6101f7565b90508281526020810184848401111561029c5761029b610181565b5b6102a7848285610243565b509392505050565b600082601f8301126102c4576102c361017c565b5b81516102d484826020860161026d565b91505092915050565b6000819050919050565b6102f0816102dd565b81146102fb57600080fd5b50565b60008151905061030d816102e7565b92915050565b600080600080600080600080610100898b03121561033457610333610114565b5b60006103428b828c01610167565b985050602089015167ffffffffffffffff81111561036357610362610119565b5b61036f8b828c016102af565b975050604089015167ffffffffffffffff8111156103905761038f610119565b5b61039c8b828c016102af565b96505060606103ad8b828c01610167565b955050608089015167ffffffffffffffff8111156103ce576103cd610119565b5b6103da8b828c016102af565b94505060a06103eb8b828c016102fe565b93505060c06103fc8b828c016102fe565b92505060e061040d8b828c016102fe565b9150509295985092959890939650565b600081519050919050565b7f4e487b7100000000000000000000000000000000000000000000000000000000600052602260045260246000fd5b6000600282049050600182168061046f57607f821691505b60208210810361048257610481610428565b5b50919050565b60008190508160005260206000209050919050565b60006020601f8301049050919050565b600082821b905092915050565b6000600883026104ea7fffffffffffffffffffffffffffffffffffffffffffffffffffffffffffffffff826104ad565b6104f486836104ad565b95508019841693508086168417925050509392505050565b6000819050919050565b600061053161052c610527846102dd565b61050c565b6102dd565b9050919050565b6000819050919050565b61054b83610516565b61055f61055782610538565b8484546104ba565b825550505050565b600090565b610574610567565b61057f818484610542565b505050565b5b818110156105a35761059860008261056c565b600181019050610585565b5050565b601f8211156105e8576105b981610488565b6105c28461049d565b810160208510156105d1578190505b6105e56105dd8561049d565b830182610584565b50505b505050565b600082821c905092915050565b600061060b600019846008026105ed565b1980831691505092915050565b600061062483836105fa565b9150826002028217905092915050565b61063d8261041d565b67ffffffffffffffff81111561065657610655610197565b5b6106608254610457565b61066b8282856105a7565b600060209050601f83116001811461069e576000841561068c578287015190505b6106968582610618565b8655506106fe565b601f1984166106ac86610488565b60005b828110156106d4578489015182556001820191506020850194506020810190506106af565b868310156106f157848901516106ed601f8916826105fa565b8355505b6001600288020188555050505b505050505050565b612851806107156000396000f3fe608060405234801561001057600080fd5b506004361061014d5760003560e01c80638b85f839116100c3578063b88d4fde1161007c578063b88d4fde146103b4578063c87b56dd146103d0578063ce3d6aa914610400578063ce7fb61914610430578063d5abeb011461044e578063e985e9c51461046c5761014d565b80638b85f839146102de57806395d89b411461030e578063a035b1fe1461032c578063a22cb4651461034a578063a2309ff814610366578063a6c807a9146103845761014d565b806323b872dd1161011557806323b872dd1461020a57806329ee566c1461022657806342842e0e146102445780636352211e1461026057806370a082311461029057806371ae413d146102c05761014d565b806301ffc9a71461015257806303ee438c1461018257806306fdde03146101a0578063081812fc146101be578063095ea7b3146101ee575b600080fd5b61016c60048036038101906101679190611bdf565b61049c565b6040516101799190611c27565b60405180910390f35b61018a6104fd565b6040516101979190611cd2565b60405180910390f35b6101a861058b565b6040516101b59190611cd2565b60405180910390f35b6101d860048036038101906101d39190611d2a565b61061d565b6040516101e59190611d98565b60405180910390f35b61020860048036038101906102039190611ddf565b610639565b005b610224600480360381019061021f9190611e1f565b61064f565b005b61022e610751565b60405161023b9190611e81565b60405180910390f35b61025e60048036038101906102599190611e1f565b610757565b005b61027a60048036038101906102759190611d2a565b610777565b6040516102879190611d98565b60405180910390f35b6102aa60048036038101906102a59190611e9c565b610789565b6040516102b79190611e81565b60405180910390f35b6102c8610843565b6040516102d59190611d98565b60405180910390f35b6102f860048036038101906102f39190611e9c565b610869565b6040516103059190611e81565b60405180910390f35b610316610a8c565b6040516103239190611cd2565b60405180910390f35b610334610b1e565b6040516103419190611e81565b60405180910390f35b610364600480360381019061035f9190611ef5565b610b24565b005b61036e610b3a565b60405161037b9190611e81565b60405180910390f35b61039e60048036038101906103999190611e9c565b610b40565b6040516103ab9190611c27565b60405180910390f35b6103ce60048036038101906103c9919061206a565b610b60565b005b6103ea60048036038101906103e59190611d2a565b610b85565b6040516103f79190611cd2565b60405180910390f35b61041a60048036038101906104159190611e9c565b610bb9565b6040516104279190611c27565b60405180910390f35b610438610c0f565b6040516104459190611d98565b60405180910390f35b610456610c35565b6040516104639190611e81565b60405180910390f35b610486600480360381019061048191906120ed565b610c3b565b6040516104939190611c27565b60405180910390f35b6000634906490660e01b7bffffffffffffffffffffffffffffffffffffffffffffffffffffffff1916827bffffffffffffffffffffffffffffffffffffffffffffffffffffffff191614806104f657506104f582610ccf565b5b9050919050565b6008805461050a9061215c565b80601f01602080910402602001604051908101604052809291908181526020018280546105369061215c565b80156105835780601f1061055857610100808354040283529160200191610583565b820191906000526020600020905b81548152906001019060200180831161056657829003601f168201915b505050505081565b60606000805461059a9061215c565b80601f01602080910402602001604051908101604052809291908181526020018280546105c69061215c565b80156106135780601f106105e857610100808354040283529160200191610613565b820191906000526020600020905b8154815290600101906020018083116105f657829003601f168201915b5050505050905090565b600061062882610db1565b5061063282610e39565b9050919050565b61064b8282610646610e76565b610e7e565b5050565b600073ffffffffffffffffffffffffffffffffffffffff168273ffffffffffffffffffffffffffffffffffffffff16036106c15760006040517f64a0ae920000000000000000000000000000000000000000000000000000000081526004016106b89190611d98565b60405180910390fd5b60006106d583836106d0610e76565b610e90565b90508373ffffffffffffffffffffffffffffffffffffffff168173ffffffffffffffffffffffffffffffffffffffff161461074b578382826040517f64283d7b0000000000000000000000000000000000000000000000000000000081526004016107429392919061218d565b60405180910390fd5b50505050565b600b5481565b61077283838360405180602001604052806000815250610b60565b505050565b600061078282610db1565b9050919050565b60008073ffffffffffffffffffffffffffffffffffffffff168273ffffffffffffffffffffffffffffffffffffffff16036107fc5760006040517f89c62b640000000000000000000000000000000000000000000000000000000081526004016107f39190611d98565b60405180910390fd5b600360008373ffffffffffffffffffffffffffffffffffffffff1673ffffffffffffffffffffffffffffffffffffffff168152602001908152602001600020549050919050565b600760009054906101000a900473ffffffffffffffffffffffffffffffffffffffff1681565b6000600d60009054906101000a900473ffffffffffffffffffffffffffffffffffffffff1673ffffffffffffffffffffffffffffffffffffffff163373ffffffffffffffffffffffffffffffffffffffff16146108fb576040517f08c379a00000000000000000000000000000000000000000000000000000000081526004016108f290612210565b60405180910390fd5b600954600c5410610941576040517f08c379a00000000000000000000000000000000000000000000000000000000081526004016109389061227c565b60405180910390fd5b600e60008373ffffffffffffffffffffffffffffffffffffffff1673ffffffffffffffffffffffffffffffffffffffff16815260200190815260200160002060009054906101000a900460ff16156109ce576040517f08c379a00000000000000000000000000000000000000000000000000000000081526004016109c5906122e8565b60405180910390fd5b6001600e60008473ffffffffffffffffffffffffffffffffffffffff1673ffffffffffffffffffffffffffffffffffffffff16815260200190815260200160002060006101000a81548160ff021916908315150217905550600c6000815480929190610a3990612337565b9190505550610a4a82600c546110aa565b610a82600c546008610a5d600c546110c8565b604051602001610a6e929190612453565b604051602081830303815290604052611196565b600c549050919050565b606060018054610a9b9061215c565b80601f0160208091040260200160405190810160405280929190818152602001828054610ac79061215c565b8015610b145780601f10610ae957610100808354040283529160200191610b14565b820191906000526020600020905b815481529060010190602001808311610af757829003601f168201915b5050505050905090565b600a5481565b610b36610b2f610e76565b83836111f2565b5050565b600c5481565b600e6020528060005260406000206000915054906101000a900460ff1681565b610b6b84848461064f565b610b7f610b76610e76565b85858585611361565b50505050565b60606008610b92836110c8565b604051602001610ba3929190612453565b6040516020818303038152906040529050919050565b6000600e60008373ffffffffffffffffffffffffffffffffffffffff1673ffffffffffffffffffffffffffffffffffffffff16815260200190815260200160002060009054906101000a900460ff169050919050565b600d60009054906101000a900473ffffffffffffffffffffffffffffffffffffffff1681565b60095481565b6000600560008473ffffffffffffffffffffffffffffffffffffffff1673ffffffffffffffffffffffffffffffffffffffff16815260200190815260200160002060008373ffffffffffffffffffffffffffffffffffffffff1673ffffffffffffffffffffffffffffffffffffffff16815260200190815260200160002060009054906101000a900460ff16905092915050565b60007f80ac58cd000000000000000000000000000000000000000000000000000000007bffffffffffffffffffffffffffffffffffffffffffffffffffffffff1916827bffffffffffffffffffffffffffffffffffffffffffffffffffffffff19161480610d9a57507f5b5e139f000000000000000000000000000000000000000000000000000000007bffffffffffffffffffffffffffffffffffffffffffffffffffffffff1916827bffffffffffffffffffffffffffffffffffffffffffffffffffffffff1916145b80610daa5750610da982611512565b5b9050919050565b600080610dbd8361157c565b9050600073ffffffffffffffffffffffffffffffffffffffff168173ffffffffffffffffffffffffffffffffffffffff1603610e3057826040517f7e273289000000000000000000000000000000000000000000000000000000008152600401610e279190611e81565b60405180910390fd5b80915050919050565b60006004600083815260200190815260200160002060009054906101000a900473ffffffffffffffffffffffffffffffffffffffff169050919050565b600033905090565b610e8b83838360016115b9565b505050565b600080610e9c8461157c565b9050600073ffffffffffffffffffffffffffffffffffffffff168373ffffffffffffffffffffffffffffffffffffffff1614610ede57610edd81848661177e565b5b600073ffffffffffffffffffffffffffffffffffffffff168173ffffffffffffffffffffffffffffffffffffffff1614610f6f57610f206000856000806115b9565b6001600360008373ffffffffffffffffffffffffffffffffffffffff1673ffffffffffffffffffffffffffffffffffffffff168152602001908152602001600020600082825403925050819055505b600073ffffffffffffffffffffffffffffffffffffffff168573ffffffffffffffffffffffffffffffffffffffff1614610ff2576001600360008773ffffffffffffffffffffffffffffffffffffffff1673ffffffffffffffffffffffffffffffffffffffff168152602001908152602001600020600082825401925050819055505b846002600086815260200190815260200160002060006101000a81548173ffffffffffffffffffffffffffffffffffffffff021916908373ffffffffffffffffffffffffffffffffffffffff160217905550838573ffffffffffffffffffffffffffffffffffffffff168273ffffffffffffffffffffffffffffffffffffffff167fddf252ad1be2c89b69c2b068fc378daa952ba7f163c4a11628f55a4df523b3ef60405160405180910390a4809150509392505050565b6110c4828260405180602001604052806000815250611842565b5050565b6060600060016110d784611866565b01905060008167ffffffffffffffff8111156110f6576110f5611f3f565b5b6040519080825280601f01601f1916602001820160405280156111285781602001600182028036833780820191505090505b509050600082602001820190505b60011561118b578080600190039150507f3031323334353637383961626364656600000000000000000000000000000000600a86061a8153600a858161117f5761117e612477565b5b04945060008503611136575b819350505050919050565b806006600084815260200190815260200160002090816111b6919061263d565b507ff8e1a15aba9398e019f0b49df1a4fde98ee17ae345cb5f6b5e2c27f5033e8ce7826040516111e69190611e81565b60405180910390a15050565b600073ffffffffffffffffffffffffffffffffffffffff168273ffffffffffffffffffffffffffffffffffffffff160361126357816040517f5b08ba1800000000000000000000000000000000000000000000000000000000815260040161125a9190611d98565b60405180910390fd5b80600560008573ffffffffffffffffffffffffffffffffffffffff1673ffffffffffffffffffffffffffffffffffffffff16815260200190815260200160002060008473ffffffffffffffffffffffffffffffffffffffff1673ffffffffffffffffffffffffffffffffffffffff16815260200190815260200160002060006101000a81548160ff0219169083151502179055508173ffffffffffffffffffffffffffffffffffffffff168373ffffffffffffffffffffffffffffffffffffffff167f17307eab39ab6107e8899845ad3d59bd9653f200f220920489ca2b5937696c31836040516113549190611c27565b60405180910390a3505050565b60008373ffffffffffffffffffffffffffffffffffffffff163b111561150b578273ffffffffffffffffffffffffffffffffffffffff1663150b7a02868685856040518563ffffffff1660e01b81526004016113c09493929190612764565b6020604051808303816000875af19250505080156113fc57506040513d601f19601f820116820180604052508101906113f991906127c5565b60015b611480573d806000811461142c576040519150601f19603f3d011682016040523d82523d6000602084013e611431565b606091505b50600081510361147857836040517f64a0ae9200000000000000000000000000000000000000000000000000000000815260040161146f9190611d98565b60405180910390fd5b805181602001fd5b63150b7a0260e01b7bffffffffffffffffffffffffffffffffffffffffffffffffffffffff1916817bffffffffffffffffffffffffffffffffffffffffffffffffffffffff19161461150957836040517f64a0ae920000000000000000000000000000000000000000000000000000000081526004016115009190611d98565b60405180910390fd5b505b5050505050565b60007f01ffc9a7000000000000000000000000000000000000000000000000000000007bffffffffffffffffffffffffffffffffffffffffffffffffffffffff1916827bffffffffffffffffffffffffffffffffffffffffffffffffffffffff1916149050919050565b60006002600083815260200190815260200160002060009054906101000a900473ffffffffffffffffffffffffffffffffffffffff169050919050565b80806115f25750600073ffffffffffffffffffffffffffffffffffffffff168273ffffffffffffffffffffffffffffffffffffffff1614155b1561172657600061160284610db1565b9050600073ffffffffffffffffffffffffffffffffffffffff168373ffffffffffffffffffffffffffffffffffffffff161415801561166d57508273ffffffffffffffffffffffffffffffffffffffff168173ffffffffffffffffffffffffffffffffffffffff1614155b8015611680575061167e8184610c3b565b155b156116c257826040517fa9fbf51f0000000000000000000000000000000000000000000000000000000081526004016116b99190611d98565b60405180910390fd5b811561172457838573ffffffffffffffffffffffffffffffffffffffff168273ffffffffffffffffffffffffffffffffffffffff167f8c5be1e5ebec7d5bd14f71427d1e84f3dd0314c0f7b2291e5b200ac8c7c3b92560405160405180910390a45b505b836004600085815260200190815260200160002060006101000a81548173ffffffffffffffffffffffffffffffffffffffff021916908373ffffffffffffffffffffffffffffffffffffffff16021790555050505050565b6117898383836119b9565b61183d57600073ffffffffffffffffffffffffffffffffffffffff168373ffffffffffffffffffffffffffffffffffffffff16036117fe57806040517f7e2732890000000000000000000000000000000000000000000000000000000081526004016117f59190611e81565b60405180910390fd5b81816040517f177e802f0000000000000000000000000000000000000000000000000000000081526004016118349291906127f2565b60405180910390fd5b505050565b61184c8383611a7a565b611861611857610e76565b6000858585611361565b505050565b600080600090507a184f03e93ff9f4daa797ed6e38ed64bf6a1f01000000000000000083106118c4577a184f03e93ff9f4daa797ed6e38ed64bf6a1f01000000000000000083816118ba576118b9612477565b5b0492506040810190505b6d04ee2d6d415b85acef81000000008310611901576d04ee2d6d415b85acef810000000083816118f7576118f6612477565b5b0492506020810190505b662386f26fc10000831061193057662386f26fc10000838161192657611925612477565b5b0492506010810190505b6305f5e1008310611959576305f5e100838161194f5761194e612477565b5b0492506008810190505b612710831061197e57612710838161197457611973612477565b5b0492506004810190505b606483106119a1576064838161199757611996612477565b5b0492506002810190505b600a83106119b0576001810190505b80915050919050565b60008073ffffffffffffffffffffffffffffffffffffffff168373ffffffffffffffffffffffffffffffffffffffff1614158015611a7157508273ffffffffffffffffffffffffffffffffffffffff168473ffffffffffffffffffffffffffffffffffffffff161480611a325750611a318484610c3b565b5b80611a7057508273ffffffffffffffffffffffffffffffffffffffff16611a5883610e39565b73ffffffffffffffffffffffffffffffffffffffff16145b5b90509392505050565b600073ffffffffffffffffffffffffffffffffffffffff168273ffffffffffffffffffffffffffffffffffffffff1603611aec5760006040517f64a0ae92000000000000000000000000000000000000000000000000000000008152600401611ae39190611d98565b60405180910390fd5b6000611afa83836000610e90565b9050600073ffffffffffffffffffffffffffffffffffffffff168173ffffffffffffffffffffffffffffffffffffffff1614611b6e5760006040517f73c6ac6e000000000000000000000000000000000000000000000000000000008152600401611b659190611d98565b60405180910390fd5b505050565b6000604051905090565b600080fd5b600080fd5b60007fffffffff0000000000000000000000000000000000000000000000000000000082169050919050565b611bbc81611b87565b8114611bc757600080fd5b50565b600081359050611bd981611bb3565b92915050565b600060208284031215611bf557611bf4611b7d565b5b6000611c0384828501611bca565b91505092915050565b60008115159050919050565b611c2181611c0c565b82525050565b6000602082019050611c3c6000830184611c18565b92915050565b600081519050919050565b600082825260208201905092915050565b60005b83811015611c7c578082015181840152602081019050611c61565b60008484015250505050565b6000601f19601f8301169050919050565b6000611ca482611c42565b611cae8185611c4d565b9350611cbe818560208601611c5e565b611cc781611c88565b840191505092915050565b60006020820190508181036000830152611cec8184611c99565b905092915050565b6000819050919050565b611d0781611cf4565b8114611d1257600080fd5b50565b600081359050611d2481611cfe565b92915050565b600060208284031215611d4057611d3f611b7d565b5b6000611d4e84828501611d15565b91505092915050565b600073ffffffffffffffffffffffffffffffffffffffff82169050919050565b6000611d8282611d57565b9050919050565b611d9281611d77565b82525050565b6000602082019050611dad6000830184611d89565b92915050565b611dbc81611d77565b8114611dc757600080fd5b50565b600081359050611dd981611db3565b92915050565b60008060408385031215611df657611df5611b7d565b5b6000611e0485828601611dca565b9250506020611e1585828601611d15565b9150509250929050565b600080600060608486031215611e3857611e37611b7d565b5b6000611e4686828701611dca565b9350506020611e5786828701611dca565b9250506040611e6886828701611d15565b9150509250925092565b611e7b81611cf4565b82525050565b6000602082019050611e966000830184611e72565b92915050565b600060208284031215611eb257611eb1611b7d565b5b6000611ec084828501611dca565b91505092915050565b611ed281611c0c565b8114611edd57600080fd5b50565b600081359050611eef81611ec9565b92915050565b60008060408385031215611f0c57611f0b611b7d565b5b6000611f1a85828601611dca565b9250506020611f2b85828601611ee0565b9150509250929050565b600080fd5b600080fd5b7f4e487b7100000000000000000000000000000000000000000000000000000000600052604160045260246000fd5b611f7782611c88565b810181811067ffffffffffffffff82111715611f9657611f95611f3f565b5b80604052505050565b6000611fa9611b73565b9050611fb58282611f6e565b919050565b600067ffffffffffffffff821115611fd557611fd4611f3f565b5b611fde82611c88565b9050602081019050919050565b82818337600083830152505050565b600061200d61200884611fba565b611f9f565b90508281526020810184848401111561202957612028611f3a565b5b612034848285611feb565b509392505050565b600082601f83011261205157612050611f35565b5b8135612061848260208601611ffa565b91505092915050565b6000806000806080858703121561208457612083611b7d565b5b600061209287828801611dca565b94505060206120a387828801611dca565b93505060406120b487828801611d15565b925050606085013567ffffffffffffffff8111156120d5576120d4611b82565b5b6120e18782880161203c565b91505092959194509250565b6000806040838503121561210457612103611b7d565b5b600061211285828601611dca565b925050602061212385828601611dca565b9150509250929050565b7f4e487b7100000000000000000000000000000000000000000000000000000000600052602260045260246000fd5b6000600282049050600182168061217457607f821691505b6020821081036121875761218661212d565b5b50919050565b60006060820190506121a26000830186611d89565b6121af6020830185611e72565b6121bc6040830184611d89565b949350505050565b7f4f6e6c79205475746f7250616c20636f6e74726163742063616e206d696e7400600082015250565b60006121fa601f83611c4d565b9150612205826121c4565b602082019050919050565b60006020820190508181036000830152612229816121ed565b9050919050565b7f4d617820737570706c7920726561636865640000000000000000000000000000600082015250565b6000612266601283611c4d565b915061227182612230565b602082019050919050565b6000602082019050818103600083015261229581612259565b9050919050565b7f416c726561647920656e726f6c6c656420696e207468697320636f7572736500600082015250565b60006122d2601f83611c4d565b91506122dd8261229c565b602082019050919050565b60006020820190508181036000830152612301816122c5565b9050919050565b7f4e487b7100000000000000000000000000000000000000000000000000000000600052601160045260246000fd5b600061234282611cf4565b91507fffffffffffffffffffffffffffffffffffffffffffffffffffffffffffffffff820361237457612373612308565b5b600182019050919050565b600081905092915050565b60008190508160005260206000209050919050565b600081546123ac8161215c565b6123b6818661237f565b945060018216600081146123d157600181146123e657612419565b60ff1983168652811515820286019350612419565b6123ef8561238a565b60005b83811015612411578154818901526001820191506020810190506123f2565b838801955050505b50505092915050565b600061242d82611c42565b612437818561237f565b9350612447818560208601611c5e565b80840191505092915050565b600061245f828561239f565b915061246b8284612422565b91508190509392505050565b7f4e487b7100000000000000000000000000000000000000000000000000000000600052601260045260246000fd5b60006020601f8301049050919050565b600082821b905092915050565b6000600883026124f37fffffffffffffffffffffffffffffffffffffffffffffffffffffffffffffffff826124b6565b6124fd86836124b6565b95508019841693508086168417925050509392505050565b6000819050919050565b600061253a61253561253084611cf4565b612515565b611cf4565b9050919050565b6000819050919050565b6125548361251f565b61256861256082612541565b8484546124c3565b825550505050565b600090565b61257d612570565b61258881848461254b565b505050565b5b818110156125ac576125a1600082612575565b60018101905061258e565b5050565b601f8211156125f1576125c28161238a565b6125cb846124a6565b810160208510156125da578190505b6125ee6125e6856124a6565b83018261258d565b50505b505050565b600082821c905092915050565b6000612614600019846008026125f6565b1980831691505092915050565b600061262d8383612603565b9150826002028217905092915050565b61264682611c42565b67ffffffffffffffff81111561265f5761265e611f3f565b5b612669825461215c565b6126748282856125b0565b600060209050601f8311600181146126a75760008415612695578287015190505b61269f8582612621565b865550612707565b601f1984166126b58661238a565b60005b828110156126dd578489015182556001820191506020850194506020810190506126b8565b868310156126fa57848901516126f6601f891682612603565b8355505b6001600288020188555050505b505050505050565b600081519050919050565b600082825260208201905092915050565b60006127368261270f565b612740818561271a565b9350612750818560208601611c5e565b61275981611c88565b840191505092915050565b60006080820190506127796000830187611d89565b6127866020830186611d89565b6127936040830185611e72565b81810360608301526127a5818461272b565b905095945050505050565b6000815190506127bf81611bb3565b92915050565b6000602082840312156127db576127da611b7d565b5b60006127e9848285016127b0565b91505092915050565b60006040820190506128076000830185611d89565b6128146020830184611e72565b939250505056fea26469706673582212204649a36fb8c1ef51d72f2f6aefe9f0d902bc1e828900e3c5a6cae8ba6c427c8d64736f6c634300081b0033a2646970667358221220afebfee1f815d7f8c183fc1bc8e6be3c489e49880baca7734f5bb790c6cc283564736f6c634300081b0033",
  "linkReferences": {},
  "deployedLinkReferences": {}
}